{
	"SpanishSun_flattened.sol": {
		"SpanishSun": {
			"abi": [
				{
					"inputs": [
						{
							"internalType": "uint256",
							"name": "initialSupply",
							"type": "uint256"
						}
					],
					"stateMutability": "nonpayable",
					"type": "constructor"
				},
				{
					"inputs": [
						{
							"internalType": "address",
							"name": "spender",
							"type": "address"
						},
						{
							"internalType": "uint256",
							"name": "allowance",
							"type": "uint256"
						},
						{
							"internalType": "uint256",
							"name": "needed",
							"type": "uint256"
						}
					],
					"name": "ERC20InsufficientAllowance",
					"type": "error"
				},
				{
					"inputs": [
						{
							"internalType": "address",
							"name": "sender",
							"type": "address"
						},
						{
							"internalType": "uint256",
							"name": "balance",
							"type": "uint256"
						},
						{
							"internalType": "uint256",
							"name": "needed",
							"type": "uint256"
						}
					],
					"name": "ERC20InsufficientBalance",
					"type": "error"
				},
				{
					"inputs": [
						{
							"internalType": "address",
							"name": "approver",
							"type": "address"
						}
					],
					"name": "ERC20InvalidApprover",
					"type": "error"
				},
				{
					"inputs": [
						{
							"internalType": "address",
							"name": "receiver",
							"type": "address"
						}
					],
					"name": "ERC20InvalidReceiver",
					"type": "error"
				},
				{
					"inputs": [
						{
							"internalType": "address",
							"name": "sender",
							"type": "address"
						}
					],
					"name": "ERC20InvalidSender",
					"type": "error"
				},
				{
					"inputs": [
						{
							"internalType": "address",
							"name": "spender",
							"type": "address"
						}
					],
					"name": "ERC20InvalidSpender",
					"type": "error"
				},
				{
					"inputs": [
						{
							"internalType": "address",
							"name": "owner",
							"type": "address"
						}
					],
					"name": "OwnableInvalidOwner",
					"type": "error"
				},
				{
					"inputs": [
						{
							"internalType": "address",
							"name": "account",
							"type": "address"
						}
					],
					"name": "OwnableUnauthorizedAccount",
					"type": "error"
				},
				{
					"anonymous": false,
					"inputs": [
						{
							"indexed": true,
							"internalType": "address",
							"name": "owner",
							"type": "address"
						},
						{
							"indexed": true,
							"internalType": "address",
							"name": "spender",
							"type": "address"
						},
						{
							"indexed": false,
							"internalType": "uint256",
							"name": "value",
							"type": "uint256"
						}
					],
					"name": "Approval",
					"type": "event"
				},
				{
					"anonymous": false,
					"inputs": [
						{
							"indexed": true,
							"internalType": "address",
							"name": "previousOwner",
							"type": "address"
						},
						{
							"indexed": true,
							"internalType": "address",
							"name": "newOwner",
							"type": "address"
						}
					],
					"name": "OwnershipTransferred",
					"type": "event"
				},
				{
					"anonymous": false,
					"inputs": [
						{
							"indexed": true,
							"internalType": "address",
							"name": "from",
							"type": "address"
						},
						{
							"indexed": true,
							"internalType": "address",
							"name": "to",
							"type": "address"
						},
						{
							"indexed": false,
							"internalType": "uint256",
							"name": "value",
							"type": "uint256"
						}
					],
					"name": "Transfer",
					"type": "event"
				},
				{
					"inputs": [
						{
							"internalType": "address",
							"name": "owner",
							"type": "address"
						},
						{
							"internalType": "address",
							"name": "spender",
							"type": "address"
						}
					],
					"name": "allowance",
					"outputs": [
						{
							"internalType": "uint256",
							"name": "",
							"type": "uint256"
						}
					],
					"stateMutability": "view",
					"type": "function"
				},
				{
					"inputs": [
						{
							"internalType": "address",
							"name": "spender",
							"type": "address"
						},
						{
							"internalType": "uint256",
							"name": "value",
							"type": "uint256"
						}
					],
					"name": "approve",
					"outputs": [
						{
							"internalType": "bool",
							"name": "",
							"type": "bool"
						}
					],
					"stateMutability": "nonpayable",
					"type": "function"
				},
				{
					"inputs": [
						{
							"internalType": "address",
							"name": "account",
							"type": "address"
						}
					],
					"name": "balanceOf",
					"outputs": [
						{
							"internalType": "uint256",
							"name": "",
							"type": "uint256"
						}
					],
					"stateMutability": "view",
					"type": "function"
				},
				{
					"inputs": [],
					"name": "decimals",
					"outputs": [
						{
							"internalType": "uint8",
							"name": "",
							"type": "uint8"
						}
					],
					"stateMutability": "view",
					"type": "function"
				},
				{
					"inputs": [],
					"name": "name",
					"outputs": [
						{
							"internalType": "string",
							"name": "",
							"type": "string"
						}
					],
					"stateMutability": "view",
					"type": "function"
				},
				{
					"inputs": [],
					"name": "owner",
					"outputs": [
						{
							"internalType": "address",
							"name": "",
							"type": "address"
						}
					],
					"stateMutability": "view",
					"type": "function"
				},
				{
					"inputs": [],
					"name": "renounceOwnership",
					"outputs": [],
					"stateMutability": "nonpayable",
					"type": "function"
				},
				{
					"inputs": [],
					"name": "symbol",
					"outputs": [
						{
							"internalType": "string",
							"name": "",
							"type": "string"
						}
					],
					"stateMutability": "view",
					"type": "function"
				},
				{
					"inputs": [],
					"name": "totalSupply",
					"outputs": [
						{
							"internalType": "uint256",
							"name": "",
							"type": "uint256"
						}
					],
					"stateMutability": "view",
					"type": "function"
				},
				{
					"inputs": [
						{
							"internalType": "address",
							"name": "to",
							"type": "address"
						},
						{
							"internalType": "uint256",
							"name": "value",
							"type": "uint256"
						}
					],
					"name": "transfer",
					"outputs": [
						{
							"internalType": "bool",
							"name": "",
							"type": "bool"
						}
					],
					"stateMutability": "nonpayable",
					"type": "function"
				},
				{
					"inputs": [
						{
							"internalType": "address",
							"name": "from",
							"type": "address"
						},
						{
							"internalType": "address",
							"name": "to",
							"type": "address"
						},
						{
							"internalType": "uint256",
							"name": "value",
							"type": "uint256"
						}
					],
					"name": "transferFrom",
					"outputs": [
						{
							"internalType": "bool",
							"name": "",
							"type": "bool"
						}
					],
					"stateMutability": "nonpayable",
					"type": "function"
				},
				{
					"inputs": [
						{
							"internalType": "address",
							"name": "newOwner",
							"type": "address"
						}
					],
					"name": "transferOwnership",
					"outputs": [],
					"stateMutability": "nonpayable",
					"type": "function"
				}
			],
			"devdoc": {
				"kind": "dev",
				"methods": {},
				"version": 1
			},
			"evm": {
				"assembly": "    /* \"SpanishSun_flattened.sol\":9063:9261  contract SpanishSun is ERC20, Ownable {... */\n  mstore(0x40, 0x80)\n    /* \"SpanishSun_flattened.sol\":9107:9259  constructor(uint256 initialSupply) ERC20(\"SpanishSun\", \"SPS\") Ownable(msg.sender) {... */\n  callvalue\n  dup1\n  iszero\n  tag_1\n  jumpi\n  0x00\n  dup1\n  revert\ntag_1:\n  pop\n  mload(0x40)\n  sub(codesize, bytecodeSize)\n  dup1\n  bytecodeSize\n  dup4\n  codecopy\n  dup2\n  add\n  0x40\n  dup2\n  swap1\n  mstore\n  tag_2\n  swap2\n  tag_3\n  jump\t// in\ntag_2:\n    /* \"SpanishSun_flattened.sol\":9177:9187  msg.sender */\n  caller\n    /* \"SpanishSun_flattened.sol\":3383:3496  constructor(string memory name_, string memory symbol_) {... */\n  mload(0x40)\n  dup1\n  0x40\n  add\n  0x40\n  mstore\n  dup1\n  0x0a\n  dup2\n  mstore\n  0x20\n  add\n  shl(0xb1, 0x29b830b734b9b429bab7)\n  dup2\n  mstore\n  pop\n  mload(0x40)\n  dup1\n  0x40\n  add\n  0x40\n  mstore\n  dup1\n  0x03\n  dup2\n  mstore\n  0x20\n  add\n  shl(0xe8, 0x535053)\n  dup2\n  mstore\n  pop\n    /* \"SpanishSun_flattened.sol\":3457:3462  name_ */\n  dup2\n    /* \"SpanishSun_flattened.sol\":3449:3454  _name */\n  0x03\n    /* \"SpanishSun_flattened.sol\":3449:3462  _name = name_ */\n  swap1\n  dup2\n  tag_8\n  swap2\n  swap1\n  tag_9\n  jump\t// in\ntag_8:\n  pop\n    /* \"SpanishSun_flattened.sol\":3472:3479  _symbol */\n  0x04\n    /* \"SpanishSun_flattened.sol\":3472:3489  _symbol = symbol_ */\n  tag_10\n    /* \"SpanishSun_flattened.sol\":3482:3489  symbol_ */\n  dup3\n    /* \"SpanishSun_flattened.sol\":3472:3479  _symbol */\n  dup3\n    /* \"SpanishSun_flattened.sol\":3472:3489  _symbol = symbol_ */\n  tag_9\n  jump\t// in\ntag_10:\n  pop\n  pop\n  pop\n  sub(shl(0xa0, 0x01), 0x01)\n    /* \"SpanishSun_flattened.sol\":8019:8045  initialOwner == address(0) */\n  dup2\n  and\n    /* \"SpanishSun_flattened.sol\":8015:8110  if (initialOwner == address(0)) {... */\n  tag_12\n  jumpi\n    /* \"SpanishSun_flattened.sol\":8068:8099  OwnableInvalidOwner(address(0)) */\n  mload(0x40)\n  shl(0xe0, 0x1e4fbdf7)\n  dup2\n  mstore\n    /* \"SpanishSun_flattened.sol\":8096:8097  0 */\n  0x00\n    /* \"SpanishSun_flattened.sol\":8068:8099  OwnableInvalidOwner(address(0)) */\n  0x04\n  dup3\n  add\n    /* \"#utility.yul\":3070:3121   */\n  mstore\n    /* \"#utility.yul\":3043:3061   */\n  0x24\n  add\n    /* \"SpanishSun_flattened.sol\":8068:8099  OwnableInvalidOwner(address(0)) */\ntag_13:\n  mload(0x40)\n  dup1\n  swap2\n  sub\n  swap1\n  revert\n    /* \"SpanishSun_flattened.sol\":8015:8110  if (initialOwner == address(0)) {... */\ntag_12:\n    /* \"SpanishSun_flattened.sol\":8119:8151  _transferOwnership(initialOwner) */\n  tag_15\n    /* \"SpanishSun_flattened.sol\":8138:8150  initialOwner */\n  dup2\n    /* \"SpanishSun_flattened.sol\":8119:8137  _transferOwnership */\n  tag_16\n    /* \"SpanishSun_flattened.sol\":8119:8151  _transferOwnership(initialOwner) */\n  jump\t// in\ntag_15:\n  pop\n    /* \"SpanishSun_flattened.sol\":9199:9252  _mint(msg.sender, initialSupply * (10 ** decimals())) */\n  tag_18\n    /* \"SpanishSun_flattened.sol\":9205:9215  msg.sender */\n  caller\n    /* \"SpanishSun_flattened.sol\":9234:9250  10 ** decimals() */\n  tag_21\n    /* \"SpanishSun_flattened.sol\":3769:3771  18 */\n  0x12\n    /* \"SpanishSun_flattened.sol\":9234:9236  10 */\n  0x0a\n    /* \"SpanishSun_flattened.sol\":9234:9250  10 ** decimals() */\n  tag_22\n  jump\t// in\ntag_21:\n    /* \"SpanishSun_flattened.sol\":9217:9251  initialSupply * (10 ** decimals()) */\n  tag_23\n  swap1\n    /* \"SpanishSun_flattened.sol\":9217:9230  initialSupply */\n  dup5\n    /* \"SpanishSun_flattened.sol\":9217:9251  initialSupply * (10 ** decimals()) */\n  tag_24\n  jump\t// in\ntag_23:\n    /* \"SpanishSun_flattened.sol\":9199:9204  _mint */\n  tag_25\n    /* \"SpanishSun_flattened.sol\":9199:9252  _mint(msg.sender, initialSupply * (10 ** decimals())) */\n  jump\t// in\ntag_18:\n    /* \"SpanishSun_flattened.sol\":9107:9259  constructor(uint256 initialSupply) ERC20(\"SpanishSun\", \"SPS\") Ownable(msg.sender) {... */\n  pop\n    /* \"SpanishSun_flattened.sol\":9063:9261  contract SpanishSun is ERC20, Ownable {... */\n  jump(tag_54)\n    /* \"SpanishSun_flattened.sol\":8819:9006  function _transferOwnership(address newOwner) internal virtual {... */\ntag_16:\n    /* \"SpanishSun_flattened.sol\":8911:8917  _owner */\n  0x05\n  dup1\n  sload\n  sub(shl(0xa0, 0x01), 0x01)\n    /* \"SpanishSun_flattened.sol\":8927:8944  _owner = newOwner */\n  dup4\n  dup2\n  and\n  not(sub(shl(0xa0, 0x01), 0x01))\n  dup4\n  and\n  dup2\n  or\n  swap1\n  swap4\n  sstore\n    /* \"SpanishSun_flattened.sol\":8959:8999  OwnershipTransferred(oldOwner, newOwner) */\n  mload(0x40)\n    /* \"SpanishSun_flattened.sol\":8911:8917  _owner */\n  swap2\n  and\n  swap2\n    /* \"SpanishSun_flattened.sol\":8927:8944  _owner = newOwner */\n  swap1\n    /* \"SpanishSun_flattened.sol\":8911:8917  _owner */\n  dup3\n  swap1\n    /* \"SpanishSun_flattened.sol\":8959:8999  OwnershipTransferred(oldOwner, newOwner) */\n  0x8be0079c531659141344cd1fd0a4f28419497f9722a3daafe3b4186f6b6457e0\n  swap1\n    /* \"SpanishSun_flattened.sol\":8892:8908  address oldOwner */\n  0x00\n  swap1\n    /* \"SpanishSun_flattened.sol\":8959:8999  OwnershipTransferred(oldOwner, newOwner) */\n  log3\n    /* \"SpanishSun_flattened.sol\":8882:9006  {... */\n  pop\n    /* \"SpanishSun_flattened.sol\":8819:9006  function _transferOwnership(address newOwner) internal virtual {... */\n  pop\n  jump\t// out\n    /* \"SpanishSun_flattened.sol\":6201:6409  function _mint(address account, uint256 value) internal {... */\ntag_25:\n  sub(shl(0xa0, 0x01), 0x01)\n    /* \"SpanishSun_flattened.sol\":6271:6292  account == address(0) */\n  dup3\n  and\n    /* \"SpanishSun_flattened.sol\":6267:6358  if (account == address(0)) {... */\n  tag_30\n  jumpi\n    /* \"SpanishSun_flattened.sol\":6315:6347  ERC20InvalidReceiver(address(0)) */\n  mload(0x40)\n  shl(0xe0, 0xec442f05)\n  dup2\n  mstore\n    /* \"SpanishSun_flattened.sol\":6344:6345  0 */\n  0x00\n    /* \"SpanishSun_flattened.sol\":6315:6347  ERC20InvalidReceiver(address(0)) */\n  0x04\n  dup3\n  add\n    /* \"#utility.yul\":3070:3121   */\n  mstore\n    /* \"#utility.yul\":3043:3061   */\n  0x24\n  add\n    /* \"SpanishSun_flattened.sol\":6315:6347  ERC20InvalidReceiver(address(0)) */\n  tag_13\n    /* \"#utility.yul\":2924:3127   */\n  jump\n    /* \"SpanishSun_flattened.sol\":6267:6358  if (account == address(0)) {... */\ntag_30:\n    /* \"SpanishSun_flattened.sol\":6367:6402  _update(address(0), account, value) */\n  tag_32\n    /* \"SpanishSun_flattened.sol\":6383:6384  0 */\n  0x00\n    /* \"SpanishSun_flattened.sol\":6387:6394  account */\n  dup4\n    /* \"SpanishSun_flattened.sol\":6396:6401  value */\n  dup4\n    /* \"SpanishSun_flattened.sol\":6367:6374  _update */\n  tag_33\n    /* \"SpanishSun_flattened.sol\":6367:6402  _update(address(0), account, value) */\n  jump\t// in\ntag_32:\n    /* \"SpanishSun_flattened.sol\":6201:6409  function _mint(address account, uint256 value) internal {... */\n  pop\n  pop\n  jump\t// out\n    /* \"SpanishSun_flattened.sol\":5088:6195  function _update(address from, address to, uint256 value) internal virtual {... */\ntag_33:\n  sub(shl(0xa0, 0x01), 0x01)\n    /* \"SpanishSun_flattened.sol\":5177:5195  from == address(0) */\n  dup4\n  and\n    /* \"SpanishSun_flattened.sol\":5173:5713  if (from == address(0)) {... */\n  tag_35\n  jumpi\n    /* \"SpanishSun_flattened.sol\":5329:5334  value */\n  dup1\n    /* \"SpanishSun_flattened.sol\":5313:5325  _totalSupply */\n  0x02\n  0x00\n    /* \"SpanishSun_flattened.sol\":5313:5334  _totalSupply += value */\n  dup3\n  dup3\n  sload\n  tag_36\n  swap2\n  swap1\n  tag_37\n  jump\t// in\ntag_36:\n  swap1\n  swap2\n  sstore\n  pop\n    /* \"SpanishSun_flattened.sol\":5173:5713  if (from == address(0)) {... */\n  tag_38\n  swap1\n  pop\n  jump\ntag_35:\n  sub(shl(0xa0, 0x01), 0x01)\n    /* \"SpanishSun_flattened.sol\":5387:5402  _balances[from] */\n  dup4\n  and\n    /* \"SpanishSun_flattened.sol\":5365:5384  uint256 fromBalance */\n  0x00\n    /* \"SpanishSun_flattened.sol\":5387:5402  _balances[from] */\n  swap1\n  dup2\n  mstore\n  0x20\n  dup2\n  swap1\n  mstore\n  0x40\n  swap1\n  keccak256\n  sload\n    /* \"SpanishSun_flattened.sol\":5420:5439  fromBalance < value */\n  dup2\n  dup2\n  lt\n    /* \"SpanishSun_flattened.sol\":5416:5531  if (fromBalance < value) {... */\n  iszero\n  tag_39\n  jumpi\n    /* \"SpanishSun_flattened.sol\":5466:5516  ERC20InsufficientBalance(from, fromBalance, value) */\n  mload(0x40)\n  shl(0xe2, 0x391434e3)\n  dup2\n  mstore\n  sub(shl(0xa0, 0x01), 0x01)\n    /* \"#utility.yul\":5170:5202   */\n  dup6\n  and\n    /* \"SpanishSun_flattened.sol\":5466:5516  ERC20InsufficientBalance(from, fromBalance, value) */\n  0x04\n  dup3\n  add\n    /* \"#utility.yul\":5152:5203   */\n  mstore\n    /* \"#utility.yul\":5219:5237   */\n  0x24\n  dup2\n  add\n    /* \"#utility.yul\":5212:5246   */\n  dup3\n  swap1\n  mstore\n    /* \"#utility.yul\":5262:5280   */\n  0x44\n  dup2\n  add\n    /* \"#utility.yul\":5255:5289   */\n  dup4\n  swap1\n  mstore\n    /* \"#utility.yul\":5125:5143   */\n  0x64\n  add\n    /* \"SpanishSun_flattened.sol\":5466:5516  ERC20InsufficientBalance(from, fromBalance, value) */\n  tag_13\n    /* \"#utility.yul\":4950:5295   */\n  jump\n    /* \"SpanishSun_flattened.sol\":5416:5531  if (fromBalance < value) {... */\ntag_39:\n  sub(shl(0xa0, 0x01), 0x01)\n    /* \"SpanishSun_flattened.sol\":5651:5666  _balances[from] */\n  dup5\n  and\n    /* \"SpanishSun_flattened.sol\":5651:5660  _balances */\n  0x00\n    /* \"SpanishSun_flattened.sol\":5651:5666  _balances[from] */\n  swap1\n  dup2\n  mstore\n  0x20\n  dup2\n  swap1\n  mstore\n  0x40\n  swap1\n  keccak256\n    /* \"SpanishSun_flattened.sol\":5669:5688  fromBalance - value */\n  swap1\n  dup3\n  swap1\n  sub\n    /* \"SpanishSun_flattened.sol\":5651:5688  _balances[from] = fromBalance - value */\n  swap1\n  sstore\n    /* \"SpanishSun_flattened.sol\":5173:5713  if (from == address(0)) {... */\ntag_38:\n  sub(shl(0xa0, 0x01), 0x01)\n    /* \"SpanishSun_flattened.sol\":5727:5743  to == address(0) */\n  dup3\n  and\n    /* \"SpanishSun_flattened.sol\":5723:6148  if (to == address(0)) {... */\n  tag_42\n  jumpi\n    /* \"SpanishSun_flattened.sol\":5890:5902  _totalSupply */\n  0x02\n    /* \"SpanishSun_flattened.sol\":5890:5911  _totalSupply -= value */\n  dup1\n  sload\n  dup3\n  swap1\n  sub\n  swap1\n  sstore\n    /* \"SpanishSun_flattened.sol\":5723:6148  if (to == address(0)) {... */\n  jump(tag_43)\ntag_42:\n  sub(shl(0xa0, 0x01), 0x01)\n    /* \"SpanishSun_flattened.sol\":6101:6114  _balances[to] */\n  dup3\n  and\n    /* \"SpanishSun_flattened.sol\":6101:6110  _balances */\n  0x00\n    /* \"SpanishSun_flattened.sol\":6101:6114  _balances[to] */\n  swap1\n  dup2\n  mstore\n  0x20\n  dup2\n  swap1\n  mstore\n  0x40\n  swap1\n  keccak256\n    /* \"SpanishSun_flattened.sol\":6101:6123  _balances[to] += value */\n  dup1\n  sload\n  dup3\n  add\n  swap1\n  sstore\n    /* \"SpanishSun_flattened.sol\":5723:6148  if (to == address(0)) {... */\ntag_43:\n    /* \"SpanishSun_flattened.sol\":6178:6180  to */\n  dup2\n  sub(shl(0xa0, 0x01), 0x01)\n    /* \"SpanishSun_flattened.sol\":6163:6188  Transfer(from, to, value) */\n  and\n    /* \"SpanishSun_flattened.sol\":6172:6176  from */\n  dup4\n  sub(shl(0xa0, 0x01), 0x01)\n    /* \"SpanishSun_flattened.sol\":6163:6188  Transfer(from, to, value) */\n  and\n  0xddf252ad1be2c89b69c2b068fc378daa952ba7f163c4a11628f55a4df523b3ef\n    /* \"SpanishSun_flattened.sol\":6182:6187  value */\n  dup4\n    /* \"SpanishSun_flattened.sol\":6163:6188  Transfer(from, to, value) */\n  mload(0x40)\n  tag_44\n  swap2\n    /* \"#utility.yul\":5446:5471   */\n  dup2\n  mstore\n    /* \"#utility.yul\":5434:5436   */\n  0x20\n    /* \"#utility.yul\":5419:5437   */\n  add\n  swap1\n    /* \"#utility.yul\":5300:5477   */\n  jump\n    /* \"SpanishSun_flattened.sol\":6163:6188  Transfer(from, to, value) */\ntag_44:\n  mload(0x40)\n  dup1\n  swap2\n  sub\n  swap1\n  log3\n    /* \"SpanishSun_flattened.sol\":5088:6195  function _update(address from, address to, uint256 value) internal virtual {... */\n  pop\n  pop\n  pop\n  jump\t// out\n    /* \"#utility.yul\":14:198   */\ntag_3:\n    /* \"#utility.yul\":84:90   */\n  0x00\n    /* \"#utility.yul\":137:139   */\n  0x20\n    /* \"#utility.yul\":125:134   */\n  dup3\n    /* \"#utility.yul\":116:123   */\n  dup5\n    /* \"#utility.yul\":112:135   */\n  sub\n    /* \"#utility.yul\":108:140   */\n  slt\n    /* \"#utility.yul\":105:157   */\n  iszero\n  tag_56\n  jumpi\n    /* \"#utility.yul\":153:154   */\n  0x00\n    /* \"#utility.yul\":150:151   */\n  dup1\n    /* \"#utility.yul\":143:155   */\n  revert\n    /* \"#utility.yul\":105:157   */\ntag_56:\n  pop\n    /* \"#utility.yul\":176:192   */\n  mload\n  swap2\n    /* \"#utility.yul\":14:198   */\n  swap1\n  pop\n  jump\t// out\n    /* \"#utility.yul\":203:330   */\ntag_46:\n    /* \"#utility.yul\":264:274   */\n  0x4e487b71\n    /* \"#utility.yul\":259:262   */\n  0xe0\n    /* \"#utility.yul\":255:275   */\n  shl\n    /* \"#utility.yul\":252:253   */\n  0x00\n    /* \"#utility.yul\":245:276   */\n  mstore\n    /* \"#utility.yul\":295:299   */\n  0x41\n    /* \"#utility.yul\":292:293   */\n  0x04\n    /* \"#utility.yul\":285:300   */\n  mstore\n    /* \"#utility.yul\":319:323   */\n  0x24\n    /* \"#utility.yul\":316:317   */\n  0x00\n    /* \"#utility.yul\":309:324   */\n  revert\n    /* \"#utility.yul\":335:715   */\ntag_47:\n    /* \"#utility.yul\":414:415   */\n  0x01\n    /* \"#utility.yul\":410:422   */\n  dup2\n  dup2\n  shr\n  swap1\n    /* \"#utility.yul\":457:469   */\n  dup3\n  and\n  dup1\n    /* \"#utility.yul\":478:539   */\n  tag_59\n  jumpi\n    /* \"#utility.yul\":532:536   */\n  0x7f\n    /* \"#utility.yul\":524:530   */\n  dup3\n    /* \"#utility.yul\":520:537   */\n  and\n    /* \"#utility.yul\":510:537   */\n  swap2\n  pop\n    /* \"#utility.yul\":478:539   */\ntag_59:\n    /* \"#utility.yul\":585:587   */\n  0x20\n    /* \"#utility.yul\":577:583   */\n  dup3\n    /* \"#utility.yul\":574:588   */\n  lt\n    /* \"#utility.yul\":554:572   */\n  dup2\n    /* \"#utility.yul\":551:589   */\n  sub\n    /* \"#utility.yul\":548:709   */\n  tag_60\n  jumpi\n    /* \"#utility.yul\":631:641   */\n  0x4e487b71\n    /* \"#utility.yul\":626:629   */\n  0xe0\n    /* \"#utility.yul\":622:642   */\n  shl\n    /* \"#utility.yul\":619:620   */\n  0x00\n    /* \"#utility.yul\":612:643   */\n  mstore\n    /* \"#utility.yul\":666:670   */\n  0x22\n    /* \"#utility.yul\":663:664   */\n  0x04\n    /* \"#utility.yul\":656:671   */\n  mstore\n    /* \"#utility.yul\":694:698   */\n  0x24\n    /* \"#utility.yul\":691:692   */\n  0x00\n    /* \"#utility.yul\":684:699   */\n  revert\n    /* \"#utility.yul\":548:709   */\ntag_60:\n  pop\n    /* \"#utility.yul\":335:715   */\n  swap2\n  swap1\n  pop\n  jump\t// out\n    /* \"#utility.yul\":846:1391   */\ntag_49:\n    /* \"#utility.yul\":948:950   */\n  0x1f\n    /* \"#utility.yul\":943:946   */\n  dup3\n    /* \"#utility.yul\":940:951   */\n  gt\n    /* \"#utility.yul\":937:1385   */\n  iszero\n  tag_63\n  jumpi\n    /* \"#utility.yul\":984:985   */\n  0x00\n    /* \"#utility.yul\":1009:1014   */\n  dup2\n    /* \"#utility.yul\":1005:1007   */\n  dup2\n    /* \"#utility.yul\":998:1015   */\n  mstore\n    /* \"#utility.yul\":1054:1058   */\n  0x20\n    /* \"#utility.yul\":1050:1052   */\n  dup2\n    /* \"#utility.yul\":1040:1059   */\n  keccak256\n    /* \"#utility.yul\":1124:1126   */\n  0x1f\n    /* \"#utility.yul\":1112:1122   */\n  dup6\n    /* \"#utility.yul\":1108:1127   */\n  add\n    /* \"#utility.yul\":1105:1106   */\n  0x05\n    /* \"#utility.yul\":1101:1128   */\n  shr\n    /* \"#utility.yul\":1095:1099   */\n  dup2\n    /* \"#utility.yul\":1091:1129   */\n  add\n    /* \"#utility.yul\":1160:1164   */\n  0x20\n    /* \"#utility.yul\":1148:1158   */\n  dup7\n    /* \"#utility.yul\":1145:1165   */\n  lt\n    /* \"#utility.yul\":1142:1189   */\n  iszero\n  tag_64\n  jumpi\n  pop\n    /* \"#utility.yul\":1183:1187   */\n  dup1\n    /* \"#utility.yul\":1142:1189   */\ntag_64:\n    /* \"#utility.yul\":1238:1240   */\n  0x1f\n    /* \"#utility.yul\":1233:1236   */\n  dup6\n    /* \"#utility.yul\":1229:1241   */\n  add\n    /* \"#utility.yul\":1226:1227   */\n  0x05\n    /* \"#utility.yul\":1222:1242   */\n  shr\n    /* \"#utility.yul\":1216:1220   */\n  dup3\n    /* \"#utility.yul\":1212:1243   */\n  add\n    /* \"#utility.yul\":1202:1243   */\n  swap2\n  pop\n    /* \"#utility.yul\":1293:1375   */\ntag_65:\n    /* \"#utility.yul\":1311:1313   */\n  dup2\n    /* \"#utility.yul\":1304:1309   */\n  dup2\n    /* \"#utility.yul\":1301:1314   */\n  lt\n    /* \"#utility.yul\":1293:1375   */\n  iszero\n  tag_67\n  jumpi\n    /* \"#utility.yul\":1356:1373   */\n  dup3\n  dup2\n  sstore\n    /* \"#utility.yul\":1337:1338   */\n  0x01\n    /* \"#utility.yul\":1326:1339   */\n  add\n    /* \"#utility.yul\":1293:1375   */\n  jump(tag_65)\ntag_67:\n    /* \"#utility.yul\":1297:1300   */\n  pop\n  pop\n  pop\n    /* \"#utility.yul\":937:1385   */\ntag_63:\n    /* \"#utility.yul\":846:1391   */\n  pop\n  pop\n  pop\n  jump\t// out\n    /* \"#utility.yul\":1567:2919   */\ntag_9:\n    /* \"#utility.yul\":1687:1697   */\n  dup2\n  mload\n  sub(shl(0x40, 0x01), 0x01)\n    /* \"#utility.yul\":1709:1739   */\n  dup2\n  gt\n    /* \"#utility.yul\":1706:1762   */\n  iszero\n  tag_71\n  jumpi\n    /* \"#utility.yul\":1742:1760   */\n  tag_71\n  tag_46\n  jump\t// in\ntag_71:\n    /* \"#utility.yul\":1771:1868   */\n  tag_72\n    /* \"#utility.yul\":1861:1867   */\n  dup2\n    /* \"#utility.yul\":1821:1859   */\n  tag_73\n    /* \"#utility.yul\":1853:1857   */\n  dup5\n    /* \"#utility.yul\":1847:1858   */\n  sload\n    /* \"#utility.yul\":1821:1859   */\n  tag_47\n  jump\t// in\ntag_73:\n    /* \"#utility.yul\":1815:1819   */\n  dup5\n    /* \"#utility.yul\":1771:1868   */\n  tag_49\n  jump\t// in\ntag_72:\n    /* \"#utility.yul\":1923:1927   */\n  0x20\n  dup1\n    /* \"#utility.yul\":1987:1989   */\n  0x1f\n    /* \"#utility.yul\":1976:1990   */\n  dup4\n  gt\n    /* \"#utility.yul\":2004:2005   */\n  0x01\n    /* \"#utility.yul\":1999:2662   */\n  dup2\n  eq\n  tag_75\n  jumpi\n    /* \"#utility.yul\":2706:2707   */\n  0x00\n    /* \"#utility.yul\":2723:2729   */\n  dup5\n    /* \"#utility.yul\":2720:2809   */\n  iszero\n  tag_76\n  jumpi\n  pop\n    /* \"#utility.yul\":2775:2794   */\n  dup6\n  dup4\n  add\n    /* \"#utility.yul\":2769:2795   */\n  mload\n    /* \"#utility.yul\":2720:2809   */\ntag_76:\n  not(0x00)\n    /* \"#utility.yul\":1524:1525   */\n  0x03\n    /* \"#utility.yul\":1520:1531   */\n  dup7\n  swap1\n  shl\n    /* \"#utility.yul\":1516:1540   */\n  shr\n    /* \"#utility.yul\":1512:1541   */\n  not\n    /* \"#utility.yul\":1502:1542   */\n  and\n    /* \"#utility.yul\":1548:1549   */\n  0x01\n    /* \"#utility.yul\":1544:1555   */\n  dup6\n  swap1\n  shl\n    /* \"#utility.yul\":1499:1556   */\n  or\n    /* \"#utility.yul\":2822:2903   */\n  dup6\n  sstore\n    /* \"#utility.yul\":1969:2913   */\n  jump(tag_67)\n    /* \"#utility.yul\":1999:2662   */\ntag_75:\n    /* \"#utility.yul\":793:794   */\n  0x00\n    /* \"#utility.yul\":786:800   */\n  dup6\n  dup2\n  mstore\n    /* \"#utility.yul\":830:834   */\n  0x20\n    /* \"#utility.yul\":817:835   */\n  dup2\n  keccak256\n  not(0x1f)\n    /* \"#utility.yul\":2035:2055   */\n  dup7\n  and\n  swap2\n    /* \"#utility.yul\":2153:2389   */\ntag_79:\n    /* \"#utility.yul\":2167:2174   */\n  dup3\n    /* \"#utility.yul\":2164:2165   */\n  dup2\n    /* \"#utility.yul\":2161:2175   */\n  lt\n    /* \"#utility.yul\":2153:2389   */\n  iszero\n  tag_81\n  jumpi\n    /* \"#utility.yul\":2256:2275   */\n  dup9\n  dup7\n  add\n    /* \"#utility.yul\":2250:2276   */\n  mload\n    /* \"#utility.yul\":2235:2277   */\n  dup3\n  sstore\n    /* \"#utility.yul\":2348:2375   */\n  swap5\n  dup5\n  add\n  swap5\n    /* \"#utility.yul\":2316:2317   */\n  0x01\n    /* \"#utility.yul\":2304:2318   */\n  swap1\n  swap2\n  add\n  swap1\n    /* \"#utility.yul\":2183:2202   */\n  dup5\n  add\n    /* \"#utility.yul\":2153:2389   */\n  jump(tag_79)\ntag_81:\n    /* \"#utility.yul\":2157:2160   */\n  pop\n    /* \"#utility.yul\":2417:2423   */\n  dup6\n    /* \"#utility.yul\":2408:2415   */\n  dup3\n    /* \"#utility.yul\":2405:2424   */\n  lt\n    /* \"#utility.yul\":2402:2603   */\n  iszero\n  tag_82\n  jumpi\n    /* \"#utility.yul\":2478:2497   */\n  dup8\n  dup6\n  add\n    /* \"#utility.yul\":2472:2498   */\n  mload\n  not(0x00)\n    /* \"#utility.yul\":2561:2562   */\n  0x03\n    /* \"#utility.yul\":2557:2571   */\n  dup9\n  swap1\n  shl\n    /* \"#utility.yul\":2573:2576   */\n  0xf8\n    /* \"#utility.yul\":2553:2577   */\n  and\n    /* \"#utility.yul\":2549:2586   */\n  shr\n    /* \"#utility.yul\":2545:2587   */\n  not\n    /* \"#utility.yul\":2530:2588   */\n  and\n    /* \"#utility.yul\":2515:2589   */\n  dup2\n  sstore\n    /* \"#utility.yul\":2402:2603   */\ntag_82:\n  pop\n  pop\n  pop\n  pop\n  pop\n    /* \"#utility.yul\":2649:2650   */\n  0x01\n    /* \"#utility.yul\":2633:2647   */\n  swap1\n  dup2\n  shl\n    /* \"#utility.yul\":2629:2651   */\n  add\n    /* \"#utility.yul\":2616:2652   */\n  swap1\n  sstore\n  pop\n    /* \"#utility.yul\":1567:2919   */\n  jump\t// out\n    /* \"#utility.yul\":3132:3259   */\ntag_51:\n    /* \"#utility.yul\":3193:3203   */\n  0x4e487b71\n    /* \"#utility.yul\":3188:3191   */\n  0xe0\n    /* \"#utility.yul\":3184:3204   */\n  shl\n    /* \"#utility.yul\":3181:3182   */\n  0x00\n    /* \"#utility.yul\":3174:3205   */\n  mstore\n    /* \"#utility.yul\":3224:3228   */\n  0x11\n    /* \"#utility.yul\":3221:3222   */\n  0x04\n    /* \"#utility.yul\":3214:3229   */\n  mstore\n    /* \"#utility.yul\":3248:3252   */\n  0x24\n    /* \"#utility.yul\":3245:3246   */\n  0x00\n    /* \"#utility.yul\":3238:3253   */\n  revert\n    /* \"#utility.yul\":3264:3686   */\ntag_52:\n    /* \"#utility.yul\":3353:3354   */\n  0x01\n    /* \"#utility.yul\":3396:3401   */\n  dup2\n    /* \"#utility.yul\":3353:3354   */\n  dup2\n    /* \"#utility.yul\":3410:3680   */\ntag_86:\n    /* \"#utility.yul\":3431:3438   */\n  dup1\n    /* \"#utility.yul\":3421:3429   */\n  dup6\n    /* \"#utility.yul\":3418:3439   */\n  gt\n    /* \"#utility.yul\":3410:3680   */\n  iszero\n  tag_88\n  jumpi\n    /* \"#utility.yul\":3490:3494   */\n  dup2\n    /* \"#utility.yul\":3486:3487   */\n  0x00\n    /* \"#utility.yul\":3482:3488   */\n  not\n    /* \"#utility.yul\":3478:3495   */\n  div\n    /* \"#utility.yul\":3472:3476   */\n  dup3\n    /* \"#utility.yul\":3469:3496   */\n  gt\n    /* \"#utility.yul\":3466:3519   */\n  iszero\n  tag_90\n  jumpi\n    /* \"#utility.yul\":3499:3517   */\n  tag_90\n  tag_51\n  jump\t// in\ntag_90:\n    /* \"#utility.yul\":3549:3556   */\n  dup1\n    /* \"#utility.yul\":3539:3547   */\n  dup6\n    /* \"#utility.yul\":3535:3557   */\n  and\n    /* \"#utility.yul\":3532:3587   */\n  iszero\n  tag_91\n  jumpi\n    /* \"#utility.yul\":3569:3585   */\n  swap2\n  dup2\n  mul\n  swap2\n    /* \"#utility.yul\":3532:3587   */\ntag_91:\n    /* \"#utility.yul\":3648:3670   */\n  swap4\n  dup5\n  shr\n  swap4\n    /* \"#utility.yul\":3608:3623   */\n  swap1\n  dup1\n  mul\n  swap1\n    /* \"#utility.yul\":3410:3680   */\n  jump(tag_86)\ntag_88:\n    /* \"#utility.yul\":3414:3417   */\n  pop\n    /* \"#utility.yul\":3264:3686   */\n  swap3\n  pop\n  swap3\n  swap1\n  pop\n  jump\t// out\n    /* \"#utility.yul\":3691:4497   */\ntag_53:\n    /* \"#utility.yul\":3740:3745   */\n  0x00\n    /* \"#utility.yul\":3770:3778   */\n  dup3\n    /* \"#utility.yul\":3760:3840   */\n  tag_93\n  jumpi\n  pop\n    /* \"#utility.yul\":3811:3812   */\n  0x01\n    /* \"#utility.yul\":3825:3830   */\n  jump(tag_92)\n    /* \"#utility.yul\":3760:3840   */\ntag_93:\n    /* \"#utility.yul\":3859:3863   */\n  dup2\n    /* \"#utility.yul\":3849:3925   */\n  tag_94\n  jumpi\n  pop\n    /* \"#utility.yul\":3896:3897   */\n  0x00\n    /* \"#utility.yul\":3910:3915   */\n  jump(tag_92)\n    /* \"#utility.yul\":3849:3925   */\ntag_94:\n    /* \"#utility.yul\":3941:3945   */\n  dup2\n    /* \"#utility.yul\":3959:3960   */\n  0x01\n    /* \"#utility.yul\":3954:4013   */\n  dup2\n  eq\n  tag_96\n  jumpi\n    /* \"#utility.yul\":4027:4028   */\n  0x02\n    /* \"#utility.yul\":4022:4152   */\n  dup2\n  eq\n  tag_97\n  jumpi\n    /* \"#utility.yul\":3934:4152   */\n  jump(tag_95)\n    /* \"#utility.yul\":3954:4013   */\ntag_96:\n    /* \"#utility.yul\":3984:3985   */\n  0x01\n    /* \"#utility.yul\":3975:3985   */\n  swap2\n  pop\n    /* \"#utility.yul\":3998:4003   */\n  pop\n  jump(tag_92)\n    /* \"#utility.yul\":4022:4152   */\ntag_97:\n    /* \"#utility.yul\":4059:4062   */\n  0xff\n    /* \"#utility.yul\":4049:4057   */\n  dup5\n    /* \"#utility.yul\":4046:4063   */\n  gt\n    /* \"#utility.yul\":4043:4086   */\n  iszero\n  tag_99\n  jumpi\n    /* \"#utility.yul\":4066:4084   */\n  tag_99\n  tag_51\n  jump\t// in\ntag_99:\n  pop\n  pop\n    /* \"#utility.yul\":4122:4123   */\n  0x01\n    /* \"#utility.yul\":4108:4124   */\n  dup3\n  shl\n    /* \"#utility.yul\":4137:4142   */\n  jump(tag_92)\n    /* \"#utility.yul\":3934:4152   */\ntag_95:\n  pop\n    /* \"#utility.yul\":4236:4238   */\n  0x20\n    /* \"#utility.yul\":4226:4234   */\n  dup4\n    /* \"#utility.yul\":4223:4239   */\n  lt\n    /* \"#utility.yul\":4217:4220   */\n  0x0133\n    /* \"#utility.yul\":4211:4215   */\n  dup4\n    /* \"#utility.yul\":4208:4221   */\n  lt\n    /* \"#utility.yul\":4204:4240   */\n  and\n    /* \"#utility.yul\":4198:4200   */\n  0x4e\n    /* \"#utility.yul\":4188:4196   */\n  dup5\n    /* \"#utility.yul\":4185:4201   */\n  lt\n    /* \"#utility.yul\":4180:4182   */\n  0x0b\n    /* \"#utility.yul\":4174:4178   */\n  dup5\n    /* \"#utility.yul\":4171:4183   */\n  lt\n    /* \"#utility.yul\":4167:4202   */\n  and\n    /* \"#utility.yul\":4164:4241   */\n  or\n    /* \"#utility.yul\":4161:4320   */\n  iszero\n  tag_100\n  jumpi\n  pop\n    /* \"#utility.yul\":4273:4292   */\n  dup2\n  dup2\n  exp\n    /* \"#utility.yul\":4305:4310   */\n  jump(tag_92)\n    /* \"#utility.yul\":4161:4320   */\ntag_100:\n    /* \"#utility.yul\":4352:4386   */\n  tag_101\n    /* \"#utility.yul\":4377:4385   */\n  dup4\n    /* \"#utility.yul\":4371:4375   */\n  dup4\n    /* \"#utility.yul\":4352:4386   */\n  tag_52\n  jump\t// in\ntag_101:\n    /* \"#utility.yul\":4422:4428   */\n  dup1\n    /* \"#utility.yul\":4418:4419   */\n  0x00\n    /* \"#utility.yul\":4414:4420   */\n  not\n    /* \"#utility.yul\":4410:4429   */\n  div\n    /* \"#utility.yul\":4401:4408   */\n  dup3\n    /* \"#utility.yul\":4398:4430   */\n  gt\n    /* \"#utility.yul\":4395:4453   */\n  iszero\n  tag_103\n  jumpi\n    /* \"#utility.yul\":4433:4451   */\n  tag_103\n  tag_51\n  jump\t// in\ntag_103:\n    /* \"#utility.yul\":4471:4491   */\n  mul\n  swap1\n  pop\n    /* \"#utility.yul\":3691:4497   */\ntag_92:\n  swap3\n  swap2\n  pop\n  pop\n  jump\t// out\n    /* \"#utility.yul\":4502:4642   */\ntag_22:\n    /* \"#utility.yul\":4560:4565   */\n  0x00\n    /* \"#utility.yul\":4589:4636   */\n  tag_105\n    /* \"#utility.yul\":4630:4634   */\n  0xff\n    /* \"#utility.yul\":4620:4628   */\n  dup5\n    /* \"#utility.yul\":4616:4635   */\n  and\n    /* \"#utility.yul\":4610:4614   */\n  dup4\n    /* \"#utility.yul\":4589:4636   */\n  tag_53\n  jump\t// in\ntag_105:\n    /* \"#utility.yul\":4580:4636   */\n  swap4\n    /* \"#utility.yul\":4502:4642   */\n  swap3\n  pop\n  pop\n  pop\n  jump\t// out\n    /* \"#utility.yul\":4647:4815   */\ntag_24:\n    /* \"#utility.yul\":4720:4729   */\n  dup1\n  dup3\n  mul\n    /* \"#utility.yul\":4751:4760   */\n  dup2\n  iszero\n    /* \"#utility.yul\":4768:4783   */\n  dup3\n  dup3\n  div\n    /* \"#utility.yul\":4762:4784   */\n  dup5\n  eq\n    /* \"#utility.yul\":4748:4785   */\n  or\n    /* \"#utility.yul\":4738:4809   */\n  tag_92\n  jumpi\n    /* \"#utility.yul\":4789:4807   */\n  tag_92\n  tag_51\n  jump\t// in\n    /* \"#utility.yul\":4820:4945   */\ntag_37:\n    /* \"#utility.yul\":4885:4894   */\n  dup1\n  dup3\n  add\n    /* \"#utility.yul\":4906:4916   */\n  dup1\n  dup3\n  gt\n    /* \"#utility.yul\":4903:4939   */\n  iszero\n  tag_92\n  jumpi\n    /* \"#utility.yul\":4919:4937   */\n  tag_92\n  tag_51\n  jump\t// in\n    /* \"#utility.yul\":5300:5477   */\ntag_54:\n    /* \"SpanishSun_flattened.sol\":9063:9261  contract SpanishSun is ERC20, Ownable {... */\n  dataSize(sub_0)\n  dup1\n  dataOffset(sub_0)\n  0x00\n  codecopy\n  0x00\n  return\nstop\n\nsub_0: assembly {\n        /* \"SpanishSun_flattened.sol\":9063:9261  contract SpanishSun is ERC20, Ownable {... */\n      mstore(0x40, 0x80)\n      callvalue\n      dup1\n      iszero\n      tag_1\n      jumpi\n      0x00\n      dup1\n      revert\n    tag_1:\n      pop\n      jumpi(tag_2, lt(calldatasize, 0x04))\n      shr(0xe0, calldataload(0x00))\n      dup1\n      0x715018a6\n      gt\n      tag_15\n      jumpi\n      dup1\n      0x715018a6\n      eq\n      tag_9\n      jumpi\n      dup1\n      0x8da5cb5b\n      eq\n      tag_10\n      jumpi\n      dup1\n      0x95d89b41\n      eq\n      tag_11\n      jumpi\n      dup1\n      0xa9059cbb\n      eq\n      tag_12\n      jumpi\n      dup1\n      0xdd62ed3e\n      eq\n      tag_13\n      jumpi\n      dup1\n      0xf2fde38b\n      eq\n      tag_14\n      jumpi\n      0x00\n      dup1\n      revert\n    tag_15:\n      dup1\n      0x06fdde03\n      eq\n      tag_3\n      jumpi\n      dup1\n      0x095ea7b3\n      eq\n      tag_4\n      jumpi\n      dup1\n      0x18160ddd\n      eq\n      tag_5\n      jumpi\n      dup1\n      0x23b872dd\n      eq\n      tag_6\n      jumpi\n      dup1\n      0x313ce567\n      eq\n      tag_7\n      jumpi\n      dup1\n      0x70a08231\n      eq\n      tag_8\n      jumpi\n    tag_2:\n      0x00\n      dup1\n      revert\n        /* \"SpanishSun_flattened.sol\":3502:3591  function name() public view virtual returns (string memory) {... */\n    tag_3:\n      tag_16\n      tag_17\n      jump\t// in\n    tag_16:\n      mload(0x40)\n      tag_18\n      swap2\n      swap1\n      tag_19\n      jump\t// in\n    tag_18:\n      mload(0x40)\n      dup1\n      swap2\n      sub\n      swap1\n      return\n        /* \"SpanishSun_flattened.sol\":4339:4525  function approve(address spender, uint256 value) public virtual returns (bool) {... */\n    tag_4:\n      tag_20\n      tag_21\n      calldatasize\n      0x04\n      tag_22\n      jump\t// in\n    tag_21:\n      tag_23\n      jump\t// in\n    tag_20:\n      mload(0x40)\n        /* \"#utility.yul\":1169:1183   */\n      swap1\n      iszero\n        /* \"#utility.yul\":1162:1184   */\n      iszero\n        /* \"#utility.yul\":1144:1185   */\n      dup2\n      mstore\n        /* \"#utility.yul\":1132:1134   */\n      0x20\n        /* \"#utility.yul\":1117:1135   */\n      add\n        /* \"SpanishSun_flattened.sol\":4339:4525  function approve(address spender, uint256 value) public virtual returns (bool) {... */\n      tag_18\n        /* \"#utility.yul\":1004:1191   */\n      jump\n        /* \"SpanishSun_flattened.sol\":3784:3881  function totalSupply() public view virtual returns (uint256) {... */\n    tag_5:\n        /* \"SpanishSun_flattened.sol\":3862:3874  _totalSupply */\n      sload(0x02)\n        /* \"SpanishSun_flattened.sol\":3784:3881  function totalSupply() public view virtual returns (uint256) {... */\n    tag_26:\n      mload(0x40)\n        /* \"#utility.yul\":1342:1367   */\n      swap1\n      dup2\n      mstore\n        /* \"#utility.yul\":1330:1332   */\n      0x20\n        /* \"#utility.yul\":1315:1333   */\n      add\n        /* \"SpanishSun_flattened.sol\":3784:3881  function totalSupply() public view virtual returns (uint256) {... */\n      tag_18\n        /* \"#utility.yul\":1196:1373   */\n      jump\n        /* \"SpanishSun_flattened.sol\":4532:4776  function transferFrom(address from, address to, uint256 value) public virtual returns (bool) {... */\n    tag_6:\n      tag_20\n      tag_31\n      calldatasize\n      0x04\n      tag_32\n      jump\t// in\n    tag_31:\n      tag_33\n      jump\t// in\n        /* \"SpanishSun_flattened.sol\":3696:3778  function decimals() public view virtual returns (uint8) {... */\n    tag_7:\n      mload(0x40)\n        /* \"SpanishSun_flattened.sol\":3769:3771  18 */\n      0x12\n        /* \"#utility.yul\":1853:1889   */\n      dup2\n      mstore\n        /* \"#utility.yul\":1841:1843   */\n      0x20\n        /* \"#utility.yul\":1826:1844   */\n      add\n        /* \"SpanishSun_flattened.sol\":3696:3778  function decimals() public view virtual returns (uint8) {... */\n      tag_18\n        /* \"#utility.yul\":1711:1895   */\n      jump\n        /* \"SpanishSun_flattened.sol\":3887:4003  function balanceOf(address account) public view virtual returns (uint256) {... */\n    tag_8:\n      tag_26\n      tag_40\n      calldatasize\n      0x04\n      tag_41\n      jump\t// in\n    tag_40:\n      sub(shl(0xa0, 0x01), 0x01)\n        /* \"SpanishSun_flattened.sol\":3978:3996  _balances[account] */\n      and\n        /* \"SpanishSun_flattened.sol\":3952:3959  uint256 */\n      0x00\n        /* \"SpanishSun_flattened.sol\":3978:3996  _balances[account] */\n      swap1\n      dup2\n      mstore\n      0x20\n      dup2\n      swap1\n      mstore\n      0x40\n      swap1\n      keccak256\n      sload\n      swap1\n        /* \"SpanishSun_flattened.sol\":3887:4003  function balanceOf(address account) public view virtual returns (uint256) {... */\n      jump\n        /* \"SpanishSun_flattened.sol\":8491:8592  function renounceOwnership() public virtual onlyOwner {... */\n    tag_9:\n      tag_44\n      tag_45\n      jump\t// in\n    tag_44:\n      stop\n        /* \"SpanishSun_flattened.sol\":8232:8317  function owner() public view virtual returns (address) {... */\n    tag_10:\n        /* \"SpanishSun_flattened.sol\":8304:8310  _owner */\n      sload(0x05)\n        /* \"SpanishSun_flattened.sol\":8232:8317  function owner() public view virtual returns (address) {... */\n      mload(0x40)\n      sub(shl(0xa0, 0x01), 0x01)\n        /* \"SpanishSun_flattened.sol\":8304:8310  _owner */\n      swap1\n      swap2\n      and\n        /* \"#utility.yul\":2237:2288   */\n      dup2\n      mstore\n        /* \"#utility.yul\":2225:2227   */\n      0x20\n        /* \"#utility.yul\":2210:2228   */\n      add\n        /* \"SpanishSun_flattened.sol\":8232:8317  function owner() public view virtual returns (address) {... */\n      tag_18\n        /* \"#utility.yul\":2091:2294   */\n      jump\n        /* \"SpanishSun_flattened.sol\":3597:3690  function symbol() public view virtual returns (string memory) {... */\n    tag_11:\n      tag_16\n      tag_51\n      jump\t// in\n        /* \"SpanishSun_flattened.sol\":4009:4187  function transfer(address to, uint256 value) public virtual returns (bool) {... */\n    tag_12:\n      tag_20\n      tag_54\n      calldatasize\n      0x04\n      tag_22\n      jump\t// in\n    tag_54:\n      tag_55\n      jump\t// in\n        /* \"SpanishSun_flattened.sol\":4193:4333  function allowance(address owner, address spender) public view virtual returns (uint256) {... */\n    tag_13:\n      tag_26\n      tag_58\n      calldatasize\n      0x04\n      tag_59\n      jump\t// in\n    tag_58:\n      sub(shl(0xa0, 0x01), 0x01)\n        /* \"SpanishSun_flattened.sol\":4299:4317  _allowances[owner] */\n      swap2\n      dup3\n      and\n        /* \"SpanishSun_flattened.sol\":4273:4280  uint256 */\n      0x00\n        /* \"SpanishSun_flattened.sol\":4299:4317  _allowances[owner] */\n      swap1\n      dup2\n      mstore\n        /* \"SpanishSun_flattened.sol\":4299:4310  _allowances */\n      0x01\n        /* \"SpanishSun_flattened.sol\":4299:4317  _allowances[owner] */\n      0x20\n      swap1\n      dup2\n      mstore\n      0x40\n      dup1\n      dup4\n      keccak256\n        /* \"SpanishSun_flattened.sol\":4299:4326  _allowances[owner][spender] */\n      swap4\n      swap1\n      swap5\n      and\n      dup3\n      mstore\n      swap2\n      swap1\n      swap2\n      mstore\n      keccak256\n      sload\n      swap1\n        /* \"SpanishSun_flattened.sol\":4193:4333  function allowance(address owner, address spender) public view virtual returns (uint256) {... */\n      jump\n        /* \"SpanishSun_flattened.sol\":8598:8813  function transferOwnership(address newOwner) public virtual onlyOwner {... */\n    tag_14:\n      tag_44\n      tag_63\n      calldatasize\n      0x04\n      tag_41\n      jump\t// in\n    tag_63:\n      tag_64\n      jump\t// in\n        /* \"SpanishSun_flattened.sol\":3502:3591  function name() public view virtual returns (string memory) {... */\n    tag_17:\n        /* \"SpanishSun_flattened.sol\":3547:3560  string memory */\n      0x60\n        /* \"SpanishSun_flattened.sol\":3579:3584  _name */\n      0x03\n        /* \"SpanishSun_flattened.sol\":3572:3584  return _name */\n      dup1\n      sload\n      tag_66\n      swap1\n      tag_67\n      jump\t// in\n    tag_66:\n      dup1\n      0x1f\n      add\n      0x20\n      dup1\n      swap2\n      div\n      mul\n      0x20\n      add\n      mload(0x40)\n      swap1\n      dup2\n      add\n      0x40\n      mstore\n      dup1\n      swap3\n      swap2\n      swap1\n      dup2\n      dup2\n      mstore\n      0x20\n      add\n      dup3\n      dup1\n      sload\n      tag_68\n      swap1\n      tag_67\n      jump\t// in\n    tag_68:\n      dup1\n      iszero\n      tag_69\n      jumpi\n      dup1\n      0x1f\n      lt\n      tag_70\n      jumpi\n      0x0100\n      dup1\n      dup4\n      sload\n      div\n      mul\n      dup4\n      mstore\n      swap2\n      0x20\n      add\n      swap2\n      jump(tag_69)\n    tag_70:\n      dup3\n      add\n      swap2\n      swap1\n      0x00\n      mstore\n      keccak256(0x00, 0x20)\n      swap1\n    tag_71:\n      dup2\n      sload\n      dup2\n      mstore\n      swap1\n      0x01\n      add\n      swap1\n      0x20\n      add\n      dup1\n      dup4\n      gt\n      tag_71\n      jumpi\n      dup3\n      swap1\n      sub\n      0x1f\n      and\n      dup3\n      add\n      swap2\n    tag_69:\n      pop\n      pop\n      pop\n      pop\n      pop\n      swap1\n      pop\n        /* \"SpanishSun_flattened.sol\":3502:3591  function name() public view virtual returns (string memory) {... */\n      swap1\n      jump\t// out\n        /* \"SpanishSun_flattened.sol\":4339:4525  function approve(address spender, uint256 value) public virtual returns (bool) {... */\n    tag_23:\n        /* \"SpanishSun_flattened.sol\":4412:4416  bool */\n      0x00\n        /* \"SpanishSun_flattened.sol\":1397:1407  msg.sender */\n      caller\n        /* \"SpanishSun_flattened.sol\":4466:4497  _approve(owner, spender, value) */\n      tag_75\n        /* \"SpanishSun_flattened.sol\":1397:1407  msg.sender */\n      dup2\n        /* \"SpanishSun_flattened.sol\":4482:4489  spender */\n      dup6\n        /* \"SpanishSun_flattened.sol\":4491:4496  value */\n      dup6\n        /* \"SpanishSun_flattened.sol\":4466:4474  _approve */\n      tag_76\n        /* \"SpanishSun_flattened.sol\":4466:4497  _approve(owner, spender, value) */\n      jump\t// in\n    tag_75:\n        /* \"SpanishSun_flattened.sol\":4514:4518  true */\n      0x01\n        /* \"SpanishSun_flattened.sol\":4507:4518  return true */\n      swap2\n      pop\n      pop\n        /* \"SpanishSun_flattened.sol\":4339:4525  function approve(address spender, uint256 value) public virtual returns (bool) {... */\n    tag_72:\n      swap3\n      swap2\n      pop\n      pop\n      jump\t// out\n        /* \"SpanishSun_flattened.sol\":4532:4776  function transferFrom(address from, address to, uint256 value) public virtual returns (bool) {... */\n    tag_33:\n        /* \"SpanishSun_flattened.sol\":4619:4623  bool */\n      0x00\n        /* \"SpanishSun_flattened.sol\":1397:1407  msg.sender */\n      caller\n        /* \"SpanishSun_flattened.sol\":4675:4712  _spendAllowance(from, spender, value) */\n      tag_80\n        /* \"SpanishSun_flattened.sol\":4691:4695  from */\n      dup6\n        /* \"SpanishSun_flattened.sol\":1397:1407  msg.sender */\n      dup3\n        /* \"SpanishSun_flattened.sol\":4706:4711  value */\n      dup6\n        /* \"SpanishSun_flattened.sol\":4675:4690  _spendAllowance */\n      tag_81\n        /* \"SpanishSun_flattened.sol\":4675:4712  _spendAllowance(from, spender, value) */\n      jump\t// in\n    tag_80:\n        /* \"SpanishSun_flattened.sol\":4722:4748  _transfer(from, to, value) */\n      tag_82\n        /* \"SpanishSun_flattened.sol\":4732:4736  from */\n      dup6\n        /* \"SpanishSun_flattened.sol\":4738:4740  to */\n      dup6\n        /* \"SpanishSun_flattened.sol\":4742:4747  value */\n      dup6\n        /* \"SpanishSun_flattened.sol\":4722:4731  _transfer */\n      tag_83\n        /* \"SpanishSun_flattened.sol\":4722:4748  _transfer(from, to, value) */\n      jump\t// in\n    tag_82:\n      pop\n        /* \"SpanishSun_flattened.sol\":4765:4769  true */\n      0x01\n      swap5\n        /* \"SpanishSun_flattened.sol\":4532:4776  function transferFrom(address from, address to, uint256 value) public virtual returns (bool) {... */\n      swap4\n      pop\n      pop\n      pop\n      pop\n      jump\t// out\n        /* \"SpanishSun_flattened.sol\":8491:8592  function renounceOwnership() public virtual onlyOwner {... */\n    tag_45:\n        /* \"SpanishSun_flattened.sol\":8195:8208  _checkOwner() */\n      tag_87\n        /* \"SpanishSun_flattened.sol\":8195:8206  _checkOwner */\n      tag_88\n        /* \"SpanishSun_flattened.sol\":8195:8208  _checkOwner() */\n      jump\t// in\n    tag_87:\n        /* \"SpanishSun_flattened.sol\":8555:8585  _transferOwnership(address(0)) */\n      tag_90\n        /* \"SpanishSun_flattened.sol\":8582:8583  0 */\n      0x00\n        /* \"SpanishSun_flattened.sol\":8555:8573  _transferOwnership */\n      tag_91\n        /* \"SpanishSun_flattened.sol\":8555:8585  _transferOwnership(address(0)) */\n      jump\t// in\n    tag_90:\n        /* \"SpanishSun_flattened.sol\":8491:8592  function renounceOwnership() public virtual onlyOwner {... */\n      jump\t// out\n        /* \"SpanishSun_flattened.sol\":3597:3690  function symbol() public view virtual returns (string memory) {... */\n    tag_51:\n        /* \"SpanishSun_flattened.sol\":3644:3657  string memory */\n      0x60\n        /* \"SpanishSun_flattened.sol\":3676:3683  _symbol */\n      0x04\n        /* \"SpanishSun_flattened.sol\":3669:3683  return _symbol */\n      dup1\n      sload\n      tag_66\n      swap1\n      tag_67\n      jump\t// in\n        /* \"SpanishSun_flattened.sol\":4009:4187  function transfer(address to, uint256 value) public virtual returns (bool) {... */\n    tag_55:\n        /* \"SpanishSun_flattened.sol\":4078:4082  bool */\n      0x00\n        /* \"SpanishSun_flattened.sol\":1397:1407  msg.sender */\n      caller\n        /* \"SpanishSun_flattened.sol\":4132:4159  _transfer(owner, to, value) */\n      tag_75\n        /* \"SpanishSun_flattened.sol\":1397:1407  msg.sender */\n      dup2\n        /* \"SpanishSun_flattened.sol\":4149:4151  to */\n      dup6\n        /* \"SpanishSun_flattened.sol\":4153:4158  value */\n      dup6\n        /* \"SpanishSun_flattened.sol\":4132:4141  _transfer */\n      tag_83\n        /* \"SpanishSun_flattened.sol\":4132:4159  _transfer(owner, to, value) */\n      jump\t// in\n        /* \"SpanishSun_flattened.sol\":8598:8813  function transferOwnership(address newOwner) public virtual onlyOwner {... */\n    tag_64:\n        /* \"SpanishSun_flattened.sol\":8195:8208  _checkOwner() */\n      tag_104\n        /* \"SpanishSun_flattened.sol\":8195:8206  _checkOwner */\n      tag_88\n        /* \"SpanishSun_flattened.sol\":8195:8208  _checkOwner() */\n      jump\t// in\n    tag_104:\n      sub(shl(0xa0, 0x01), 0x01)\n        /* \"SpanishSun_flattened.sol\":8682:8704  newOwner == address(0) */\n      dup2\n      and\n        /* \"SpanishSun_flattened.sol\":8678:8769  if (newOwner == address(0)) {... */\n      tag_106\n      jumpi\n        /* \"SpanishSun_flattened.sol\":8727:8758  OwnableInvalidOwner(address(0)) */\n      mload(0x40)\n      shl(0xe0, 0x1e4fbdf7)\n      dup2\n      mstore\n        /* \"SpanishSun_flattened.sol\":8755:8756  0 */\n      0x00\n        /* \"SpanishSun_flattened.sol\":8727:8758  OwnableInvalidOwner(address(0)) */\n      0x04\n      dup3\n      add\n        /* \"#utility.yul\":2237:2288   */\n      mstore\n        /* \"#utility.yul\":2210:2228   */\n      0x24\n      add\n        /* \"SpanishSun_flattened.sol\":8727:8758  OwnableInvalidOwner(address(0)) */\n    tag_107:\n      mload(0x40)\n      dup1\n      swap2\n      sub\n      swap1\n      revert\n        /* \"SpanishSun_flattened.sol\":8678:8769  if (newOwner == address(0)) {... */\n    tag_106:\n        /* \"SpanishSun_flattened.sol\":8778:8806  _transferOwnership(newOwner) */\n      tag_108\n        /* \"SpanishSun_flattened.sol\":8797:8805  newOwner */\n      dup2\n        /* \"SpanishSun_flattened.sol\":8778:8796  _transferOwnership */\n      tag_91\n        /* \"SpanishSun_flattened.sol\":8778:8806  _transferOwnership(newOwner) */\n      jump\t// in\n    tag_108:\n        /* \"SpanishSun_flattened.sol\":8598:8813  function transferOwnership(address newOwner) public virtual onlyOwner {... */\n      pop\n      jump\t// out\n        /* \"SpanishSun_flattened.sol\":6627:6755  function _approve(address owner, address spender, uint256 value) internal {... */\n    tag_76:\n        /* \"SpanishSun_flattened.sol\":6711:6748  _approve(owner, spender, value, true) */\n      tag_111\n        /* \"SpanishSun_flattened.sol\":6720:6725  owner */\n      dup4\n        /* \"SpanishSun_flattened.sol\":6727:6734  spender */\n      dup4\n        /* \"SpanishSun_flattened.sol\":6736:6741  value */\n      dup4\n        /* \"SpanishSun_flattened.sol\":6743:6747  true */\n      0x01\n        /* \"SpanishSun_flattened.sol\":6711:6719  _approve */\n      tag_112\n        /* \"SpanishSun_flattened.sol\":6711:6748  _approve(owner, spender, value, true) */\n      jump\t// in\n    tag_111:\n        /* \"SpanishSun_flattened.sol\":6627:6755  function _approve(address owner, address spender, uint256 value) internal {... */\n      pop\n      pop\n      pop\n      jump\t// out\n        /* \"SpanishSun_flattened.sol\":7199:7676  function _spendAllowance(address owner, address spender, uint256 value) internal virtual {... */\n    tag_81:\n      sub(shl(0xa0, 0x01), 0x01)\n        /* \"SpanishSun_flattened.sol\":4299:4317  _allowances[owner] */\n      dup4\n      dup2\n      and\n        /* \"SpanishSun_flattened.sol\":7298:7322  uint256 currentAllowance */\n      0x00\n        /* \"SpanishSun_flattened.sol\":4299:4317  _allowances[owner] */\n      swap1\n      dup2\n      mstore\n        /* \"SpanishSun_flattened.sol\":4299:4310  _allowances */\n      0x01\n        /* \"SpanishSun_flattened.sol\":4299:4317  _allowances[owner] */\n      0x20\n      swap1\n      dup2\n      mstore\n      0x40\n      dup1\n      dup4\n      keccak256\n        /* \"SpanishSun_flattened.sol\":4299:4326  _allowances[owner][spender] */\n      swap4\n      dup7\n      and\n      dup4\n      mstore\n      swap3\n      swap1\n      mstore\n      keccak256\n      sload\n      not(0x00)\n        /* \"SpanishSun_flattened.sol\":7364:7401  currentAllowance != type(uint256).max */\n      dup2\n      eq\n        /* \"SpanishSun_flattened.sol\":7360:7670  if (currentAllowance != type(uint256).max) {... */\n      tag_119\n      jumpi\n        /* \"SpanishSun_flattened.sol\":7440:7445  value */\n      dup2\n        /* \"SpanishSun_flattened.sol\":7421:7437  currentAllowance */\n      dup2\n        /* \"SpanishSun_flattened.sol\":7421:7445  currentAllowance < value */\n      lt\n        /* \"SpanishSun_flattened.sol\":7417:7547  if (currentAllowance < value) {... */\n      iszero\n      tag_116\n      jumpi\n        /* \"SpanishSun_flattened.sol\":7472:7532  ERC20InsufficientAllowance(spender, currentAllowance, value) */\n      mload(0x40)\n      shl(0xe1, 0x7dc7a0d9)\n      dup2\n      mstore\n      sub(shl(0xa0, 0x01), 0x01)\n        /* \"#utility.yul\":3169:3201   */\n      dup5\n      and\n        /* \"SpanishSun_flattened.sol\":7472:7532  ERC20InsufficientAllowance(spender, currentAllowance, value) */\n      0x04\n      dup3\n      add\n        /* \"#utility.yul\":3151:3202   */\n      mstore\n        /* \"#utility.yul\":3218:3236   */\n      0x24\n      dup2\n      add\n        /* \"#utility.yul\":3211:3245   */\n      dup3\n      swap1\n      mstore\n        /* \"#utility.yul\":3261:3279   */\n      0x44\n      dup2\n      add\n        /* \"#utility.yul\":3254:3288   */\n      dup4\n      swap1\n      mstore\n        /* \"#utility.yul\":3124:3142   */\n      0x64\n      add\n        /* \"SpanishSun_flattened.sol\":7472:7532  ERC20InsufficientAllowance(spender, currentAllowance, value) */\n      tag_107\n        /* \"#utility.yul\":2949:3294   */\n      jump\n        /* \"SpanishSun_flattened.sol\":7417:7547  if (currentAllowance < value) {... */\n    tag_116:\n        /* \"SpanishSun_flattened.sol\":7588:7645  _approve(owner, spender, currentAllowance - value, false) */\n      tag_119\n        /* \"SpanishSun_flattened.sol\":7597:7602  owner */\n      dup5\n        /* \"SpanishSun_flattened.sol\":7604:7611  spender */\n      dup5\n        /* \"SpanishSun_flattened.sol\":7632:7637  value */\n      dup5\n        /* \"SpanishSun_flattened.sol\":7613:7629  currentAllowance */\n      dup5\n        /* \"SpanishSun_flattened.sol\":7613:7637  currentAllowance - value */\n      sub\n        /* \"SpanishSun_flattened.sol\":7639:7644  false */\n      0x00\n        /* \"SpanishSun_flattened.sol\":7588:7596  _approve */\n      tag_112\n        /* \"SpanishSun_flattened.sol\":7588:7645  _approve(owner, spender, currentAllowance - value, false) */\n      jump\t// in\n    tag_119:\n        /* \"SpanishSun_flattened.sol\":7288:7676  {... */\n      pop\n        /* \"SpanishSun_flattened.sol\":7199:7676  function _spendAllowance(address owner, address spender, uint256 value) internal virtual {... */\n      pop\n      pop\n      pop\n      jump\t// out\n        /* \"SpanishSun_flattened.sol\":4782:5082  function _transfer(address from, address to, uint256 value) internal {... */\n    tag_83:\n      sub(shl(0xa0, 0x01), 0x01)\n        /* \"SpanishSun_flattened.sol\":4865:4883  from == address(0) */\n      dup4\n      and\n        /* \"SpanishSun_flattened.sol\":4861:4947  if (from == address(0)) {... */\n      tag_121\n      jumpi\n        /* \"SpanishSun_flattened.sol\":4906:4936  ERC20InvalidSender(address(0)) */\n      mload(0x40)\n      shl(0xe1, 0x4b637e8f)\n      dup2\n      mstore\n        /* \"SpanishSun_flattened.sol\":4933:4934  0 */\n      0x00\n        /* \"SpanishSun_flattened.sol\":4906:4936  ERC20InvalidSender(address(0)) */\n      0x04\n      dup3\n      add\n        /* \"#utility.yul\":2237:2288   */\n      mstore\n        /* \"#utility.yul\":2210:2228   */\n      0x24\n      add\n        /* \"SpanishSun_flattened.sol\":4906:4936  ERC20InvalidSender(address(0)) */\n      tag_107\n        /* \"#utility.yul\":2091:2294   */\n      jump\n        /* \"SpanishSun_flattened.sol\":4861:4947  if (from == address(0)) {... */\n    tag_121:\n      sub(shl(0xa0, 0x01), 0x01)\n        /* \"SpanishSun_flattened.sol\":4960:4976  to == address(0) */\n      dup3\n      and\n        /* \"SpanishSun_flattened.sol\":4956:5042  if (to == address(0)) {... */\n      tag_123\n      jumpi\n        /* \"SpanishSun_flattened.sol\":4999:5031  ERC20InvalidReceiver(address(0)) */\n      mload(0x40)\n      shl(0xe0, 0xec442f05)\n      dup2\n      mstore\n        /* \"SpanishSun_flattened.sol\":5028:5029  0 */\n      0x00\n        /* \"SpanishSun_flattened.sol\":4999:5031  ERC20InvalidReceiver(address(0)) */\n      0x04\n      dup3\n      add\n        /* \"#utility.yul\":2237:2288   */\n      mstore\n        /* \"#utility.yul\":2210:2228   */\n      0x24\n      add\n        /* \"SpanishSun_flattened.sol\":4999:5031  ERC20InvalidReceiver(address(0)) */\n      tag_107\n        /* \"#utility.yul\":2091:2294   */\n      jump\n        /* \"SpanishSun_flattened.sol\":4956:5042  if (to == address(0)) {... */\n    tag_123:\n        /* \"SpanishSun_flattened.sol\":5051:5075  _update(from, to, value) */\n      tag_111\n        /* \"SpanishSun_flattened.sol\":5059:5063  from */\n      dup4\n        /* \"SpanishSun_flattened.sol\":5065:5067  to */\n      dup4\n        /* \"SpanishSun_flattened.sol\":5069:5074  value */\n      dup4\n        /* \"SpanishSun_flattened.sol\":5051:5058  _update */\n      tag_126\n        /* \"SpanishSun_flattened.sol\":5051:5075  _update(from, to, value) */\n      jump\t// in\n        /* \"SpanishSun_flattened.sol\":8323:8485  function _checkOwner() internal view virtual {... */\n    tag_88:\n        /* \"SpanishSun_flattened.sol\":8304:8310  _owner */\n      and(sub(shl(0xa0, 0x01), 0x01), sload(0x05))\n        /* \"SpanishSun_flattened.sol\":1397:1407  msg.sender */\n      caller\n        /* \"SpanishSun_flattened.sol\":8382:8405  owner() != _msgSender() */\n      eq\n        /* \"SpanishSun_flattened.sol\":8378:8479  if (owner() != _msgSender()) {... */\n      tag_90\n      jumpi\n        /* \"SpanishSun_flattened.sol\":8428:8468  OwnableUnauthorizedAccount(_msgSender()) */\n      mload(0x40)\n      shl(0xe0, 0x118cdaa7)\n      dup2\n      mstore\n        /* \"SpanishSun_flattened.sol\":1397:1407  msg.sender */\n      caller\n        /* \"SpanishSun_flattened.sol\":8428:8468  OwnableUnauthorizedAccount(_msgSender()) */\n      0x04\n      dup3\n      add\n        /* \"#utility.yul\":2237:2288   */\n      mstore\n        /* \"#utility.yul\":2210:2228   */\n      0x24\n      add\n        /* \"SpanishSun_flattened.sol\":8428:8468  OwnableUnauthorizedAccount(_msgSender()) */\n      tag_107\n        /* \"#utility.yul\":2091:2294   */\n      jump\n        /* \"SpanishSun_flattened.sol\":8819:9006  function _transferOwnership(address newOwner) internal virtual {... */\n    tag_91:\n        /* \"SpanishSun_flattened.sol\":8911:8917  _owner */\n      0x05\n      dup1\n      sload\n      sub(shl(0xa0, 0x01), 0x01)\n        /* \"SpanishSun_flattened.sol\":8927:8944  _owner = newOwner */\n      dup4\n      dup2\n      and\n      not(sub(shl(0xa0, 0x01), 0x01))\n      dup4\n      and\n      dup2\n      or\n      swap1\n      swap4\n      sstore\n        /* \"SpanishSun_flattened.sol\":8959:8999  OwnershipTransferred(oldOwner, newOwner) */\n      mload(0x40)\n        /* \"SpanishSun_flattened.sol\":8911:8917  _owner */\n      swap2\n      and\n      swap2\n        /* \"SpanishSun_flattened.sol\":8927:8944  _owner = newOwner */\n      swap1\n        /* \"SpanishSun_flattened.sol\":8911:8917  _owner */\n      dup3\n      swap1\n        /* \"SpanishSun_flattened.sol\":8959:8999  OwnershipTransferred(oldOwner, newOwner) */\n      0x8be0079c531659141344cd1fd0a4f28419497f9722a3daafe3b4186f6b6457e0\n      swap1\n        /* \"SpanishSun_flattened.sol\":8892:8908  address oldOwner */\n      0x00\n      swap1\n        /* \"SpanishSun_flattened.sol\":8959:8999  OwnershipTransferred(oldOwner, newOwner) */\n      log3\n        /* \"SpanishSun_flattened.sol\":8882:9006  {... */\n      pop\n        /* \"SpanishSun_flattened.sol\":8819:9006  function _transferOwnership(address newOwner) internal virtual {... */\n      pop\n      jump\t// out\n        /* \"SpanishSun_flattened.sol\":6761:7193  function _approve(address owner, address spender, uint256 value, bool emitEvent) internal virtual {... */\n    tag_112:\n      sub(shl(0xa0, 0x01), 0x01)\n        /* \"SpanishSun_flattened.sol\":6873:6892  owner == address(0) */\n      dup5\n      and\n        /* \"SpanishSun_flattened.sol\":6869:6958  if (owner == address(0)) {... */\n      tag_135\n      jumpi\n        /* \"SpanishSun_flattened.sol\":6915:6947  ERC20InvalidApprover(address(0)) */\n      mload(0x40)\n      shl(0xe0, 0xe602df05)\n      dup2\n      mstore\n        /* \"SpanishSun_flattened.sol\":6944:6945  0 */\n      0x00\n        /* \"SpanishSun_flattened.sol\":6915:6947  ERC20InvalidApprover(address(0)) */\n      0x04\n      dup3\n      add\n        /* \"#utility.yul\":2237:2288   */\n      mstore\n        /* \"#utility.yul\":2210:2228   */\n      0x24\n      add\n        /* \"SpanishSun_flattened.sol\":6915:6947  ERC20InvalidApprover(address(0)) */\n      tag_107\n        /* \"#utility.yul\":2091:2294   */\n      jump\n        /* \"SpanishSun_flattened.sol\":6869:6958  if (owner == address(0)) {... */\n    tag_135:\n      sub(shl(0xa0, 0x01), 0x01)\n        /* \"SpanishSun_flattened.sol\":6971:6992  spender == address(0) */\n      dup4\n      and\n        /* \"SpanishSun_flattened.sol\":6967:7057  if (spender == address(0)) {... */\n      tag_137\n      jumpi\n        /* \"SpanishSun_flattened.sol\":7015:7046  ERC20InvalidSpender(address(0)) */\n      mload(0x40)\n      shl(0xe1, 0x4a1406b1)\n      dup2\n      mstore\n        /* \"SpanishSun_flattened.sol\":7043:7044  0 */\n      0x00\n        /* \"SpanishSun_flattened.sol\":7015:7046  ERC20InvalidSpender(address(0)) */\n      0x04\n      dup3\n      add\n        /* \"#utility.yul\":2237:2288   */\n      mstore\n        /* \"#utility.yul\":2210:2228   */\n      0x24\n      add\n        /* \"SpanishSun_flattened.sol\":7015:7046  ERC20InvalidSpender(address(0)) */\n      tag_107\n        /* \"#utility.yul\":2091:2294   */\n      jump\n        /* \"SpanishSun_flattened.sol\":6967:7057  if (spender == address(0)) {... */\n    tag_137:\n      sub(shl(0xa0, 0x01), 0x01)\n        /* \"SpanishSun_flattened.sol\":7066:7084  _allowances[owner] */\n      dup1\n      dup6\n      and\n      0x00\n      swap1\n      dup2\n      mstore\n        /* \"SpanishSun_flattened.sol\":7066:7077  _allowances */\n      0x01\n        /* \"SpanishSun_flattened.sol\":7066:7084  _allowances[owner] */\n      0x20\n      swap1\n      dup2\n      mstore\n      0x40\n      dup1\n      dup4\n      keccak256\n        /* \"SpanishSun_flattened.sol\":7066:7093  _allowances[owner][spender] */\n      swap4\n      dup8\n      and\n      dup4\n      mstore\n      swap3\n      swap1\n      mstore\n      keccak256\n        /* \"SpanishSun_flattened.sol\":7066:7101  _allowances[owner][spender] = value */\n      dup3\n      swap1\n      sstore\n        /* \"SpanishSun_flattened.sol\":7111:7187  if (emitEvent) {... */\n      dup1\n      iszero\n      tag_119\n      jumpi\n        /* \"SpanishSun_flattened.sol\":7161:7168  spender */\n      dup3\n      sub(shl(0xa0, 0x01), 0x01)\n        /* \"SpanishSun_flattened.sol\":7145:7176  Approval(owner, spender, value) */\n      and\n        /* \"SpanishSun_flattened.sol\":7154:7159  owner */\n      dup5\n      sub(shl(0xa0, 0x01), 0x01)\n        /* \"SpanishSun_flattened.sol\":7145:7176  Approval(owner, spender, value) */\n      and\n      0x8c5be1e5ebec7d5bd14f71427d1e84f3dd0314c0f7b2291e5b200ac8c7c3b925\n        /* \"SpanishSun_flattened.sol\":7170:7175  value */\n      dup5\n        /* \"SpanishSun_flattened.sol\":7145:7176  Approval(owner, spender, value) */\n      mload(0x40)\n      tag_140\n      swap2\n        /* \"#utility.yul\":1342:1367   */\n      dup2\n      mstore\n        /* \"#utility.yul\":1330:1332   */\n      0x20\n        /* \"#utility.yul\":1315:1333   */\n      add\n      swap1\n        /* \"#utility.yul\":1196:1373   */\n      jump\n        /* \"SpanishSun_flattened.sol\":7145:7176  Approval(owner, spender, value) */\n    tag_140:\n      mload(0x40)\n      dup1\n      swap2\n      sub\n      swap1\n      log3\n        /* \"SpanishSun_flattened.sol\":6761:7193  function _approve(address owner, address spender, uint256 value, bool emitEvent) internal virtual {... */\n      pop\n      pop\n      pop\n      pop\n      jump\t// out\n        /* \"SpanishSun_flattened.sol\":5088:6195  function _update(address from, address to, uint256 value) internal virtual {... */\n    tag_126:\n      sub(shl(0xa0, 0x01), 0x01)\n        /* \"SpanishSun_flattened.sol\":5177:5195  from == address(0) */\n      dup4\n      and\n        /* \"SpanishSun_flattened.sol\":5173:5713  if (from == address(0)) {... */\n      tag_142\n      jumpi\n        /* \"SpanishSun_flattened.sol\":5329:5334  value */\n      dup1\n        /* \"SpanishSun_flattened.sol\":5313:5325  _totalSupply */\n      0x02\n      0x00\n        /* \"SpanishSun_flattened.sol\":5313:5334  _totalSupply += value */\n      dup3\n      dup3\n      sload\n      tag_143\n      swap2\n      swap1\n      tag_144\n      jump\t// in\n    tag_143:\n      swap1\n      swap2\n      sstore\n      pop\n        /* \"SpanishSun_flattened.sol\":5173:5713  if (from == address(0)) {... */\n      tag_145\n      swap1\n      pop\n      jump\n    tag_142:\n      sub(shl(0xa0, 0x01), 0x01)\n        /* \"SpanishSun_flattened.sol\":5387:5402  _balances[from] */\n      dup4\n      and\n        /* \"SpanishSun_flattened.sol\":5365:5384  uint256 fromBalance */\n      0x00\n        /* \"SpanishSun_flattened.sol\":5387:5402  _balances[from] */\n      swap1\n      dup2\n      mstore\n      0x20\n      dup2\n      swap1\n      mstore\n      0x40\n      swap1\n      keccak256\n      sload\n        /* \"SpanishSun_flattened.sol\":5420:5439  fromBalance < value */\n      dup2\n      dup2\n      lt\n        /* \"SpanishSun_flattened.sol\":5416:5531  if (fromBalance < value) {... */\n      iszero\n      tag_146\n      jumpi\n        /* \"SpanishSun_flattened.sol\":5466:5516  ERC20InsufficientBalance(from, fromBalance, value) */\n      mload(0x40)\n      shl(0xe2, 0x391434e3)\n      dup2\n      mstore\n      sub(shl(0xa0, 0x01), 0x01)\n        /* \"#utility.yul\":3169:3201   */\n      dup6\n      and\n        /* \"SpanishSun_flattened.sol\":5466:5516  ERC20InsufficientBalance(from, fromBalance, value) */\n      0x04\n      dup3\n      add\n        /* \"#utility.yul\":3151:3202   */\n      mstore\n        /* \"#utility.yul\":3218:3236   */\n      0x24\n      dup2\n      add\n        /* \"#utility.yul\":3211:3245   */\n      dup3\n      swap1\n      mstore\n        /* \"#utility.yul\":3261:3279   */\n      0x44\n      dup2\n      add\n        /* \"#utility.yul\":3254:3288   */\n      dup4\n      swap1\n      mstore\n        /* \"#utility.yul\":3124:3142   */\n      0x64\n      add\n        /* \"SpanishSun_flattened.sol\":5466:5516  ERC20InsufficientBalance(from, fromBalance, value) */\n      tag_107\n        /* \"#utility.yul\":2949:3294   */\n      jump\n        /* \"SpanishSun_flattened.sol\":5416:5531  if (fromBalance < value) {... */\n    tag_146:\n      sub(shl(0xa0, 0x01), 0x01)\n        /* \"SpanishSun_flattened.sol\":5651:5666  _balances[from] */\n      dup5\n      and\n        /* \"SpanishSun_flattened.sol\":5651:5660  _balances */\n      0x00\n        /* \"SpanishSun_flattened.sol\":5651:5666  _balances[from] */\n      swap1\n      dup2\n      mstore\n      0x20\n      dup2\n      swap1\n      mstore\n      0x40\n      swap1\n      keccak256\n        /* \"SpanishSun_flattened.sol\":5669:5688  fromBalance - value */\n      swap1\n      dup3\n      swap1\n      sub\n        /* \"SpanishSun_flattened.sol\":5651:5688  _balances[from] = fromBalance - value */\n      swap1\n      sstore\n        /* \"SpanishSun_flattened.sol\":5173:5713  if (from == address(0)) {... */\n    tag_145:\n      sub(shl(0xa0, 0x01), 0x01)\n        /* \"SpanishSun_flattened.sol\":5727:5743  to == address(0) */\n      dup3\n      and\n        /* \"SpanishSun_flattened.sol\":5723:6148  if (to == address(0)) {... */\n      tag_148\n      jumpi\n        /* \"SpanishSun_flattened.sol\":5890:5902  _totalSupply */\n      0x02\n        /* \"SpanishSun_flattened.sol\":5890:5911  _totalSupply -= value */\n      dup1\n      sload\n      dup3\n      swap1\n      sub\n      swap1\n      sstore\n        /* \"SpanishSun_flattened.sol\":5723:6148  if (to == address(0)) {... */\n      jump(tag_149)\n    tag_148:\n      sub(shl(0xa0, 0x01), 0x01)\n        /* \"SpanishSun_flattened.sol\":6101:6114  _balances[to] */\n      dup3\n      and\n        /* \"SpanishSun_flattened.sol\":6101:6110  _balances */\n      0x00\n        /* \"SpanishSun_flattened.sol\":6101:6114  _balances[to] */\n      swap1\n      dup2\n      mstore\n      0x20\n      dup2\n      swap1\n      mstore\n      0x40\n      swap1\n      keccak256\n        /* \"SpanishSun_flattened.sol\":6101:6123  _balances[to] += value */\n      dup1\n      sload\n      dup3\n      add\n      swap1\n      sstore\n        /* \"SpanishSun_flattened.sol\":5723:6148  if (to == address(0)) {... */\n    tag_149:\n        /* \"SpanishSun_flattened.sol\":6178:6180  to */\n      dup2\n      sub(shl(0xa0, 0x01), 0x01)\n        /* \"SpanishSun_flattened.sol\":6163:6188  Transfer(from, to, value) */\n      and\n        /* \"SpanishSun_flattened.sol\":6172:6176  from */\n      dup4\n      sub(shl(0xa0, 0x01), 0x01)\n        /* \"SpanishSun_flattened.sol\":6163:6188  Transfer(from, to, value) */\n      and\n      0xddf252ad1be2c89b69c2b068fc378daa952ba7f163c4a11628f55a4df523b3ef\n        /* \"SpanishSun_flattened.sol\":6182:6187  value */\n      dup4\n        /* \"SpanishSun_flattened.sol\":6163:6188  Transfer(from, to, value) */\n      mload(0x40)\n      tag_150\n      swap2\n        /* \"#utility.yul\":1342:1367   */\n      dup2\n      mstore\n        /* \"#utility.yul\":1330:1332   */\n      0x20\n        /* \"#utility.yul\":1315:1333   */\n      add\n      swap1\n        /* \"#utility.yul\":1196:1373   */\n      jump\n        /* \"SpanishSun_flattened.sol\":6163:6188  Transfer(from, to, value) */\n    tag_150:\n      mload(0x40)\n      dup1\n      swap2\n      sub\n      swap1\n      log3\n        /* \"SpanishSun_flattened.sol\":5088:6195  function _update(address from, address to, uint256 value) internal virtual {... */\n      pop\n      pop\n      pop\n      jump\t// out\n        /* \"#utility.yul\":14:562   */\n    tag_19:\n        /* \"#utility.yul\":126:130   */\n      0x00\n        /* \"#utility.yul\":155:157   */\n      0x20\n        /* \"#utility.yul\":184:186   */\n      dup1\n        /* \"#utility.yul\":173:182   */\n      dup4\n        /* \"#utility.yul\":166:187   */\n      mstore\n        /* \"#utility.yul\":216:222   */\n      dup4\n        /* \"#utility.yul\":210:223   */\n      mload\n        /* \"#utility.yul\":259:265   */\n      dup1\n        /* \"#utility.yul\":254:256   */\n      dup3\n        /* \"#utility.yul\":243:252   */\n      dup6\n        /* \"#utility.yul\":239:257   */\n      add\n        /* \"#utility.yul\":232:266   */\n      mstore\n        /* \"#utility.yul\":284:285   */\n      0x00\n        /* \"#utility.yul\":294:434   */\n    tag_154:\n        /* \"#utility.yul\":308:314   */\n      dup2\n        /* \"#utility.yul\":305:306   */\n      dup2\n        /* \"#utility.yul\":302:315   */\n      lt\n        /* \"#utility.yul\":294:434   */\n      iszero\n      tag_156\n      jumpi\n        /* \"#utility.yul\":403:417   */\n      dup6\n      dup2\n      add\n        /* \"#utility.yul\":399:422   */\n      dup4\n      add\n        /* \"#utility.yul\":393:423   */\n      mload\n        /* \"#utility.yul\":369:386   */\n      dup6\n      dup3\n      add\n        /* \"#utility.yul\":388:390   */\n      0x40\n        /* \"#utility.yul\":365:391   */\n      add\n        /* \"#utility.yul\":358:424   */\n      mstore\n        /* \"#utility.yul\":323:333   */\n      dup3\n      add\n        /* \"#utility.yul\":294:434   */\n      jump(tag_154)\n    tag_156:\n        /* \"#utility.yul\":298:301   */\n      pop\n        /* \"#utility.yul\":483:484   */\n      0x00\n        /* \"#utility.yul\":478:480   */\n      0x40\n        /* \"#utility.yul\":469:475   */\n      dup3\n        /* \"#utility.yul\":458:467   */\n      dup7\n        /* \"#utility.yul\":454:476   */\n      add\n        /* \"#utility.yul\":450:481   */\n      add\n        /* \"#utility.yul\":443:485   */\n      mstore\n        /* \"#utility.yul\":553:555   */\n      0x40\n        /* \"#utility.yul\":546:548   */\n      0x1f\n        /* \"#utility.yul\":542:549   */\n      not\n        /* \"#utility.yul\":537:539   */\n      0x1f\n        /* \"#utility.yul\":529:535   */\n      dup4\n        /* \"#utility.yul\":525:540   */\n      add\n        /* \"#utility.yul\":521:550   */\n      and\n        /* \"#utility.yul\":510:519   */\n      dup6\n        /* \"#utility.yul\":506:551   */\n      add\n        /* \"#utility.yul\":502:556   */\n      add\n        /* \"#utility.yul\":494:556   */\n      swap3\n      pop\n      pop\n      pop\n        /* \"#utility.yul\":14:562   */\n      swap3\n      swap2\n      pop\n      pop\n      jump\t// out\n        /* \"#utility.yul\":567:740   */\n    tag_151:\n        /* \"#utility.yul\":635:655   */\n      dup1\n      calldataload\n      sub(shl(0xa0, 0x01), 0x01)\n        /* \"#utility.yul\":684:715   */\n      dup2\n      and\n        /* \"#utility.yul\":674:716   */\n      dup2\n      eq\n        /* \"#utility.yul\":664:734   */\n      tag_158\n      jumpi\n        /* \"#utility.yul\":730:731   */\n      0x00\n        /* \"#utility.yul\":727:728   */\n      dup1\n        /* \"#utility.yul\":720:732   */\n      revert\n        /* \"#utility.yul\":664:734   */\n    tag_158:\n        /* \"#utility.yul\":567:740   */\n      swap2\n      swap1\n      pop\n      jump\t// out\n        /* \"#utility.yul\":745:999   */\n    tag_22:\n        /* \"#utility.yul\":813:819   */\n      0x00\n        /* \"#utility.yul\":821:827   */\n      dup1\n        /* \"#utility.yul\":874:876   */\n      0x40\n        /* \"#utility.yul\":862:871   */\n      dup4\n        /* \"#utility.yul\":853:860   */\n      dup6\n        /* \"#utility.yul\":849:872   */\n      sub\n        /* \"#utility.yul\":845:877   */\n      slt\n        /* \"#utility.yul\":842:894   */\n      iszero\n      tag_160\n      jumpi\n        /* \"#utility.yul\":890:891   */\n      0x00\n        /* \"#utility.yul\":887:888   */\n      dup1\n        /* \"#utility.yul\":880:892   */\n      revert\n        /* \"#utility.yul\":842:894   */\n    tag_160:\n        /* \"#utility.yul\":913:942   */\n      tag_161\n        /* \"#utility.yul\":932:941   */\n      dup4\n        /* \"#utility.yul\":913:942   */\n      tag_151\n      jump\t// in\n    tag_161:\n        /* \"#utility.yul\":903:942   */\n      swap5\n        /* \"#utility.yul\":989:991   */\n      0x20\n        /* \"#utility.yul\":974:992   */\n      swap4\n      swap1\n      swap4\n      add\n        /* \"#utility.yul\":961:993   */\n      calldataload\n      swap4\n      pop\n      pop\n      pop\n        /* \"#utility.yul\":745:999   */\n      jump\t// out\n        /* \"#utility.yul\":1378:1706   */\n    tag_32:\n        /* \"#utility.yul\":1455:1461   */\n      0x00\n        /* \"#utility.yul\":1463:1469   */\n      dup1\n        /* \"#utility.yul\":1471:1477   */\n      0x00\n        /* \"#utility.yul\":1524:1526   */\n      0x60\n        /* \"#utility.yul\":1512:1521   */\n      dup5\n        /* \"#utility.yul\":1503:1510   */\n      dup7\n        /* \"#utility.yul\":1499:1522   */\n      sub\n        /* \"#utility.yul\":1495:1527   */\n      slt\n        /* \"#utility.yul\":1492:1544   */\n      iszero\n      tag_165\n      jumpi\n        /* \"#utility.yul\":1540:1541   */\n      0x00\n        /* \"#utility.yul\":1537:1538   */\n      dup1\n        /* \"#utility.yul\":1530:1542   */\n      revert\n        /* \"#utility.yul\":1492:1544   */\n    tag_165:\n        /* \"#utility.yul\":1563:1592   */\n      tag_166\n        /* \"#utility.yul\":1582:1591   */\n      dup5\n        /* \"#utility.yul\":1563:1592   */\n      tag_151\n      jump\t// in\n    tag_166:\n        /* \"#utility.yul\":1553:1592   */\n      swap3\n      pop\n        /* \"#utility.yul\":1611:1649   */\n      tag_167\n        /* \"#utility.yul\":1645:1647   */\n      0x20\n        /* \"#utility.yul\":1634:1643   */\n      dup6\n        /* \"#utility.yul\":1630:1648   */\n      add\n        /* \"#utility.yul\":1611:1649   */\n      tag_151\n      jump\t// in\n    tag_167:\n        /* \"#utility.yul\":1601:1649   */\n      swap2\n      pop\n        /* \"#utility.yul\":1696:1698   */\n      0x40\n        /* \"#utility.yul\":1685:1694   */\n      dup5\n        /* \"#utility.yul\":1681:1699   */\n      add\n        /* \"#utility.yul\":1668:1700   */\n      calldataload\n        /* \"#utility.yul\":1658:1700   */\n      swap1\n      pop\n        /* \"#utility.yul\":1378:1706   */\n      swap3\n      pop\n      swap3\n      pop\n      swap3\n      jump\t// out\n        /* \"#utility.yul\":1900:2086   */\n    tag_41:\n        /* \"#utility.yul\":1959:1965   */\n      0x00\n        /* \"#utility.yul\":2012:2014   */\n      0x20\n        /* \"#utility.yul\":2000:2009   */\n      dup3\n        /* \"#utility.yul\":1991:1998   */\n      dup5\n        /* \"#utility.yul\":1987:2010   */\n      sub\n        /* \"#utility.yul\":1983:2015   */\n      slt\n        /* \"#utility.yul\":1980:2032   */\n      iszero\n      tag_170\n      jumpi\n        /* \"#utility.yul\":2028:2029   */\n      0x00\n        /* \"#utility.yul\":2025:2026   */\n      dup1\n        /* \"#utility.yul\":2018:2030   */\n      revert\n        /* \"#utility.yul\":1980:2032   */\n    tag_170:\n        /* \"#utility.yul\":2051:2080   */\n      tag_171\n        /* \"#utility.yul\":2070:2079   */\n      dup3\n        /* \"#utility.yul\":2051:2080   */\n      tag_151\n      jump\t// in\n    tag_171:\n        /* \"#utility.yul\":2041:2080   */\n      swap4\n        /* \"#utility.yul\":1900:2086   */\n      swap3\n      pop\n      pop\n      pop\n      jump\t// out\n        /* \"#utility.yul\":2299:2559   */\n    tag_59:\n        /* \"#utility.yul\":2367:2373   */\n      0x00\n        /* \"#utility.yul\":2375:2381   */\n      dup1\n        /* \"#utility.yul\":2428:2430   */\n      0x40\n        /* \"#utility.yul\":2416:2425   */\n      dup4\n        /* \"#utility.yul\":2407:2414   */\n      dup6\n        /* \"#utility.yul\":2403:2426   */\n      sub\n        /* \"#utility.yul\":2399:2431   */\n      slt\n        /* \"#utility.yul\":2396:2448   */\n      iszero\n      tag_174\n      jumpi\n        /* \"#utility.yul\":2444:2445   */\n      0x00\n        /* \"#utility.yul\":2441:2442   */\n      dup1\n        /* \"#utility.yul\":2434:2446   */\n      revert\n        /* \"#utility.yul\":2396:2448   */\n    tag_174:\n        /* \"#utility.yul\":2467:2496   */\n      tag_175\n        /* \"#utility.yul\":2486:2495   */\n      dup4\n        /* \"#utility.yul\":2467:2496   */\n      tag_151\n      jump\t// in\n    tag_175:\n        /* \"#utility.yul\":2457:2496   */\n      swap2\n      pop\n        /* \"#utility.yul\":2515:2553   */\n      tag_176\n        /* \"#utility.yul\":2549:2551   */\n      0x20\n        /* \"#utility.yul\":2538:2547   */\n      dup5\n        /* \"#utility.yul\":2534:2552   */\n      add\n        /* \"#utility.yul\":2515:2553   */\n      tag_151\n      jump\t// in\n    tag_176:\n        /* \"#utility.yul\":2505:2553   */\n      swap1\n      pop\n        /* \"#utility.yul\":2299:2559   */\n      swap3\n      pop\n      swap3\n      swap1\n      pop\n      jump\t// out\n        /* \"#utility.yul\":2564:2944   */\n    tag_67:\n        /* \"#utility.yul\":2643:2644   */\n      0x01\n        /* \"#utility.yul\":2639:2651   */\n      dup2\n      dup2\n      shr\n      swap1\n        /* \"#utility.yul\":2686:2698   */\n      dup3\n      and\n      dup1\n        /* \"#utility.yul\":2707:2768   */\n      tag_178\n      jumpi\n        /* \"#utility.yul\":2761:2765   */\n      0x7f\n        /* \"#utility.yul\":2753:2759   */\n      dup3\n        /* \"#utility.yul\":2749:2766   */\n      and\n        /* \"#utility.yul\":2739:2766   */\n      swap2\n      pop\n        /* \"#utility.yul\":2707:2768   */\n    tag_178:\n        /* \"#utility.yul\":2814:2816   */\n      0x20\n        /* \"#utility.yul\":2806:2812   */\n      dup3\n        /* \"#utility.yul\":2803:2817   */\n      lt\n        /* \"#utility.yul\":2783:2801   */\n      dup2\n        /* \"#utility.yul\":2780:2818   */\n      sub\n        /* \"#utility.yul\":2777:2938   */\n      tag_179\n      jumpi\n        /* \"#utility.yul\":2860:2870   */\n      0x4e487b71\n        /* \"#utility.yul\":2855:2858   */\n      0xe0\n        /* \"#utility.yul\":2851:2871   */\n      shl\n        /* \"#utility.yul\":2848:2849   */\n      0x00\n        /* \"#utility.yul\":2841:2872   */\n      mstore\n        /* \"#utility.yul\":2895:2899   */\n      0x22\n        /* \"#utility.yul\":2892:2893   */\n      0x04\n        /* \"#utility.yul\":2885:2900   */\n      mstore\n        /* \"#utility.yul\":2923:2927   */\n      0x24\n        /* \"#utility.yul\":2920:2921   */\n      0x00\n        /* \"#utility.yul\":2913:2928   */\n      revert\n        /* \"#utility.yul\":2777:2938   */\n    tag_179:\n      pop\n        /* \"#utility.yul\":2564:2944   */\n      swap2\n      swap1\n      pop\n      jump\t// out\n        /* \"#utility.yul\":3299:3521   */\n    tag_144:\n        /* \"#utility.yul\":3364:3373   */\n      dup1\n      dup3\n      add\n        /* \"#utility.yul\":3385:3395   */\n      dup1\n      dup3\n      gt\n        /* \"#utility.yul\":3382:3515   */\n      iszero\n      tag_72\n      jumpi\n        /* \"#utility.yul\":3437:3447   */\n      0x4e487b71\n        /* \"#utility.yul\":3432:3435   */\n      0xe0\n        /* \"#utility.yul\":3428:3448   */\n      shl\n        /* \"#utility.yul\":3425:3426   */\n      0x00\n        /* \"#utility.yul\":3418:3449   */\n      mstore\n        /* \"#utility.yul\":3472:3476   */\n      0x11\n        /* \"#utility.yul\":3469:3470   */\n      0x04\n        /* \"#utility.yul\":3462:3477   */\n      mstore\n        /* \"#utility.yul\":3500:3504   */\n      0x24\n        /* \"#utility.yul\":3497:3498   */\n      0x00\n        /* \"#utility.yul\":3490:3505   */\n      revert\n\n    auxdata: 0xa26469706673582212200b559483f305f47cb576e3519ad46b62e526ba58e6b5575e157c3e67ee07d08a64736f6c63430008140033\n}\n",
				"bytecode": {
					"linkReferences": {},
					"object": "60806040523480156200001157600080fd5b5060405162000e0438038062000e048339810160408190526200003491620002c2565b336040518060400160405280600a81526020016929b830b734b9b429bab760b11b8152506040518060400160405280600381526020016253505360e81b815250816003908162000085919062000381565b50600462000094828262000381565b5050506001600160a01b038116620000c757604051631e4fbdf760e01b8152600060048201526024015b60405180910390fd5b620000d281620000ff565b50620000f833620000e66012600a62000562565b620000f290846200057a565b62000151565b50620005aa565b600580546001600160a01b038381166001600160a01b0319831681179093556040519116919082907f8be0079c531659141344cd1fd0a4f28419497f9722a3daafe3b4186f6b6457e090600090a35050565b6001600160a01b0382166200017d5760405163ec442f0560e01b815260006004820152602401620000be565b6200018b600083836200018f565b5050565b6001600160a01b038316620001be578060026000828254620001b2919062000594565b90915550620002329050565b6001600160a01b03831660009081526020819052604090205481811015620002135760405163391434e360e21b81526001600160a01b03851660048201526024810182905260448101839052606401620000be565b6001600160a01b03841660009081526020819052604090209082900390555b6001600160a01b03821662000250576002805482900390556200026f565b6001600160a01b03821660009081526020819052604090208054820190555b816001600160a01b0316836001600160a01b03167fddf252ad1be2c89b69c2b068fc378daa952ba7f163c4a11628f55a4df523b3ef83604051620002b591815260200190565b60405180910390a3505050565b600060208284031215620002d557600080fd5b5051919050565b634e487b7160e01b600052604160045260246000fd5b600181811c908216806200030757607f821691505b6020821081036200032857634e487b7160e01b600052602260045260246000fd5b50919050565b601f8211156200037c57600081815260208120601f850160051c81016020861015620003575750805b601f850160051c820191505b81811015620003785782815560010162000363565b5050505b505050565b81516001600160401b038111156200039d576200039d620002dc565b620003b581620003ae8454620002f2565b846200032e565b602080601f831160018114620003ed5760008415620003d45750858301515b600019600386901b1c1916600185901b17855562000378565b600085815260208120601f198616915b828110156200041e57888601518255948401946001909101908401620003fd565b50858210156200043d5787850151600019600388901b60f8161c191681555b5050505050600190811b01905550565b634e487b7160e01b600052601160045260246000fd5b600181815b80851115620004a45781600019048211156200048857620004886200044d565b808516156200049657918102915b93841c939080029062000468565b509250929050565b600082620004bd575060016200055c565b81620004cc575060006200055c565b8160018114620004e55760028114620004f05762000510565b60019150506200055c565b60ff8411156200050457620005046200044d565b50506001821b6200055c565b5060208310610133831016604e8410600b841016171562000535575081810a6200055c565b62000541838362000463565b80600019048211156200055857620005586200044d565b0290505b92915050565b60006200057360ff841683620004ac565b9392505050565b80820281158282048414176200055c576200055c6200044d565b808201808211156200055c576200055c6200044d565b61084a80620005ba6000396000f3fe608060405234801561001057600080fd5b50600436106100b45760003560e01c8063715018a611610071578063715018a6146101575780638da5cb5b1461016157806395d89b411461017c578063a9059cbb14610184578063dd62ed3e14610197578063f2fde38b146101d057600080fd5b806306fdde03146100b9578063095ea7b3146100d757806318160ddd146100fa57806323b872dd1461010c578063313ce5671461011f57806370a082311461012e575b600080fd5b6100c16101e3565b6040516100ce9190610694565b60405180910390f35b6100ea6100e53660046106fe565b610275565b60405190151581526020016100ce565b6002545b6040519081526020016100ce565b6100ea61011a366004610728565b61028f565b604051601281526020016100ce565b6100fe61013c366004610764565b6001600160a01b031660009081526020819052604090205490565b61015f6102b3565b005b6005546040516001600160a01b0390911681526020016100ce565b6100c16102c7565b6100ea6101923660046106fe565b6102d6565b6100fe6101a5366004610786565b6001600160a01b03918216600090815260016020908152604080832093909416825291909152205490565b61015f6101de366004610764565b6102e4565b6060600380546101f2906107b9565b80601f016020809104026020016040519081016040528092919081815260200182805461021e906107b9565b801561026b5780601f106102405761010080835404028352916020019161026b565b820191906000526020600020905b81548152906001019060200180831161024e57829003601f168201915b5050505050905090565b600033610283818585610327565b60019150505b92915050565b60003361029d858285610339565b6102a88585856103b7565b506001949350505050565b6102bb610416565b6102c56000610443565b565b6060600480546101f2906107b9565b6000336102838185856103b7565b6102ec610416565b6001600160a01b03811661031b57604051631e4fbdf760e01b8152600060048201526024015b60405180910390fd5b61032481610443565b50565b6103348383836001610495565b505050565b6001600160a01b0383811660009081526001602090815260408083209386168352929052205460001981146103b157818110156103a257604051637dc7a0d960e11b81526001600160a01b03841660048201526024810182905260448101839052606401610312565b6103b184848484036000610495565b50505050565b6001600160a01b0383166103e157604051634b637e8f60e11b815260006004820152602401610312565b6001600160a01b03821661040b5760405163ec442f0560e01b815260006004820152602401610312565b61033483838361056a565b6005546001600160a01b031633146102c55760405163118cdaa760e01b8152336004820152602401610312565b600580546001600160a01b038381166001600160a01b0319831681179093556040519116919082907f8be0079c531659141344cd1fd0a4f28419497f9722a3daafe3b4186f6b6457e090600090a35050565b6001600160a01b0384166104bf5760405163e602df0560e01b815260006004820152602401610312565b6001600160a01b0383166104e957604051634a1406b160e11b815260006004820152602401610312565b6001600160a01b03808516600090815260016020908152604080832093871683529290522082905580156103b157826001600160a01b0316846001600160a01b03167f8c5be1e5ebec7d5bd14f71427d1e84f3dd0314c0f7b2291e5b200ac8c7c3b9258460405161055c91815260200190565b60405180910390a350505050565b6001600160a01b03831661059557806002600082825461058a91906107f3565b909155506106079050565b6001600160a01b038316600090815260208190526040902054818110156105e85760405163391434e360e21b81526001600160a01b03851660048201526024810182905260448101839052606401610312565b6001600160a01b03841660009081526020819052604090209082900390555b6001600160a01b03821661062357600280548290039055610642565b6001600160a01b03821660009081526020819052604090208054820190555b816001600160a01b0316836001600160a01b03167fddf252ad1be2c89b69c2b068fc378daa952ba7f163c4a11628f55a4df523b3ef8360405161068791815260200190565b60405180910390a3505050565b600060208083528351808285015260005b818110156106c1578581018301518582016040015282016106a5565b506000604082860101526040601f19601f8301168501019250505092915050565b80356001600160a01b03811681146106f957600080fd5b919050565b6000806040838503121561071157600080fd5b61071a836106e2565b946020939093013593505050565b60008060006060848603121561073d57600080fd5b610746846106e2565b9250610754602085016106e2565b9150604084013590509250925092565b60006020828403121561077657600080fd5b61077f826106e2565b9392505050565b6000806040838503121561079957600080fd5b6107a2836106e2565b91506107b0602084016106e2565b90509250929050565b600181811c908216806107cd57607f821691505b6020821081036107ed57634e487b7160e01b600052602260045260246000fd5b50919050565b8082018082111561028957634e487b7160e01b600052601160045260246000fdfea26469706673582212200b559483f305f47cb576e3519ad46b62e526ba58e6b5575e157c3e67ee07d08a64736f6c63430008140033",
					"opcodes": "PUSH1 0x80 PUSH1 0x40 MSTORE CALLVALUE DUP1 ISZERO PUSH3 0x11 JUMPI PUSH1 0x0 DUP1 REVERT JUMPDEST POP PUSH1 0x40 MLOAD PUSH3 0xE04 CODESIZE SUB DUP1 PUSH3 0xE04 DUP4 CODECOPY DUP2 ADD PUSH1 0x40 DUP2 SWAP1 MSTORE PUSH3 0x34 SWAP2 PUSH3 0x2C2 JUMP JUMPDEST CALLER PUSH1 0x40 MLOAD DUP1 PUSH1 0x40 ADD PUSH1 0x40 MSTORE DUP1 PUSH1 0xA DUP2 MSTORE PUSH1 0x20 ADD PUSH10 0x29B830B734B9B429BAB7 PUSH1 0xB1 SHL DUP2 MSTORE POP PUSH1 0x40 MLOAD DUP1 PUSH1 0x40 ADD PUSH1 0x40 MSTORE DUP1 PUSH1 0x3 DUP2 MSTORE PUSH1 0x20 ADD PUSH3 0x535053 PUSH1 0xE8 SHL DUP2 MSTORE POP DUP2 PUSH1 0x3 SWAP1 DUP2 PUSH3 0x85 SWAP2 SWAP1 PUSH3 0x381 JUMP JUMPDEST POP PUSH1 0x4 PUSH3 0x94 DUP3 DUP3 PUSH3 0x381 JUMP JUMPDEST POP POP POP PUSH1 0x1 PUSH1 0x1 PUSH1 0xA0 SHL SUB DUP2 AND PUSH3 0xC7 JUMPI PUSH1 0x40 MLOAD PUSH4 0x1E4FBDF7 PUSH1 0xE0 SHL DUP2 MSTORE PUSH1 0x0 PUSH1 0x4 DUP3 ADD MSTORE PUSH1 0x24 ADD JUMPDEST PUSH1 0x40 MLOAD DUP1 SWAP2 SUB SWAP1 REVERT JUMPDEST PUSH3 0xD2 DUP2 PUSH3 0xFF JUMP JUMPDEST POP PUSH3 0xF8 CALLER PUSH3 0xE6 PUSH1 0x12 PUSH1 0xA PUSH3 0x562 JUMP JUMPDEST PUSH3 0xF2 SWAP1 DUP5 PUSH3 0x57A JUMP JUMPDEST PUSH3 0x151 JUMP JUMPDEST POP PUSH3 0x5AA JUMP JUMPDEST PUSH1 0x5 DUP1 SLOAD PUSH1 0x1 PUSH1 0x1 PUSH1 0xA0 SHL SUB DUP4 DUP2 AND PUSH1 0x1 PUSH1 0x1 PUSH1 0xA0 SHL SUB NOT DUP4 AND DUP2 OR SWAP1 SWAP4 SSTORE PUSH1 0x40 MLOAD SWAP2 AND SWAP2 SWAP1 DUP3 SWAP1 PUSH32 0x8BE0079C531659141344CD1FD0A4F28419497F9722A3DAAFE3B4186F6B6457E0 SWAP1 PUSH1 0x0 SWAP1 LOG3 POP POP JUMP JUMPDEST PUSH1 0x1 PUSH1 0x1 PUSH1 0xA0 SHL SUB DUP3 AND PUSH3 0x17D JUMPI PUSH1 0x40 MLOAD PUSH4 0xEC442F05 PUSH1 0xE0 SHL DUP2 MSTORE PUSH1 0x0 PUSH1 0x4 DUP3 ADD MSTORE PUSH1 0x24 ADD PUSH3 0xBE JUMP JUMPDEST PUSH3 0x18B PUSH1 0x0 DUP4 DUP4 PUSH3 0x18F JUMP JUMPDEST POP POP JUMP JUMPDEST PUSH1 0x1 PUSH1 0x1 PUSH1 0xA0 SHL SUB DUP4 AND PUSH3 0x1BE JUMPI DUP1 PUSH1 0x2 PUSH1 0x0 DUP3 DUP3 SLOAD PUSH3 0x1B2 SWAP2 SWAP1 PUSH3 0x594 JUMP JUMPDEST SWAP1 SWAP2 SSTORE POP PUSH3 0x232 SWAP1 POP JUMP JUMPDEST PUSH1 0x1 PUSH1 0x1 PUSH1 0xA0 SHL SUB DUP4 AND PUSH1 0x0 SWAP1 DUP2 MSTORE PUSH1 0x20 DUP2 SWAP1 MSTORE PUSH1 0x40 SWAP1 KECCAK256 SLOAD DUP2 DUP2 LT ISZERO PUSH3 0x213 JUMPI PUSH1 0x40 MLOAD PUSH4 0x391434E3 PUSH1 0xE2 SHL DUP2 MSTORE PUSH1 0x1 PUSH1 0x1 PUSH1 0xA0 SHL SUB DUP6 AND PUSH1 0x4 DUP3 ADD MSTORE PUSH1 0x24 DUP2 ADD DUP3 SWAP1 MSTORE PUSH1 0x44 DUP2 ADD DUP4 SWAP1 MSTORE PUSH1 0x64 ADD PUSH3 0xBE JUMP JUMPDEST PUSH1 0x1 PUSH1 0x1 PUSH1 0xA0 SHL SUB DUP5 AND PUSH1 0x0 SWAP1 DUP2 MSTORE PUSH1 0x20 DUP2 SWAP1 MSTORE PUSH1 0x40 SWAP1 KECCAK256 SWAP1 DUP3 SWAP1 SUB SWAP1 SSTORE JUMPDEST PUSH1 0x1 PUSH1 0x1 PUSH1 0xA0 SHL SUB DUP3 AND PUSH3 0x250 JUMPI PUSH1 0x2 DUP1 SLOAD DUP3 SWAP1 SUB SWAP1 SSTORE PUSH3 0x26F JUMP JUMPDEST PUSH1 0x1 PUSH1 0x1 PUSH1 0xA0 SHL SUB DUP3 AND PUSH1 0x0 SWAP1 DUP2 MSTORE PUSH1 0x20 DUP2 SWAP1 MSTORE PUSH1 0x40 SWAP1 KECCAK256 DUP1 SLOAD DUP3 ADD SWAP1 SSTORE JUMPDEST DUP2 PUSH1 0x1 PUSH1 0x1 PUSH1 0xA0 SHL SUB AND DUP4 PUSH1 0x1 PUSH1 0x1 PUSH1 0xA0 SHL SUB AND PUSH32 0xDDF252AD1BE2C89B69C2B068FC378DAA952BA7F163C4A11628F55A4DF523B3EF DUP4 PUSH1 0x40 MLOAD PUSH3 0x2B5 SWAP2 DUP2 MSTORE PUSH1 0x20 ADD SWAP1 JUMP JUMPDEST PUSH1 0x40 MLOAD DUP1 SWAP2 SUB SWAP1 LOG3 POP POP POP JUMP JUMPDEST PUSH1 0x0 PUSH1 0x20 DUP3 DUP5 SUB SLT ISZERO PUSH3 0x2D5 JUMPI PUSH1 0x0 DUP1 REVERT JUMPDEST POP MLOAD SWAP2 SWAP1 POP JUMP JUMPDEST PUSH4 0x4E487B71 PUSH1 0xE0 SHL PUSH1 0x0 MSTORE PUSH1 0x41 PUSH1 0x4 MSTORE PUSH1 0x24 PUSH1 0x0 REVERT JUMPDEST PUSH1 0x1 DUP2 DUP2 SHR SWAP1 DUP3 AND DUP1 PUSH3 0x307 JUMPI PUSH1 0x7F DUP3 AND SWAP2 POP JUMPDEST PUSH1 0x20 DUP3 LT DUP2 SUB PUSH3 0x328 JUMPI PUSH4 0x4E487B71 PUSH1 0xE0 SHL PUSH1 0x0 MSTORE PUSH1 0x22 PUSH1 0x4 MSTORE PUSH1 0x24 PUSH1 0x0 REVERT JUMPDEST POP SWAP2 SWAP1 POP JUMP JUMPDEST PUSH1 0x1F DUP3 GT ISZERO PUSH3 0x37C JUMPI PUSH1 0x0 DUP2 DUP2 MSTORE PUSH1 0x20 DUP2 KECCAK256 PUSH1 0x1F DUP6 ADD PUSH1 0x5 SHR DUP2 ADD PUSH1 0x20 DUP7 LT ISZERO PUSH3 0x357 JUMPI POP DUP1 JUMPDEST PUSH1 0x1F DUP6 ADD PUSH1 0x5 SHR DUP3 ADD SWAP2 POP JUMPDEST DUP2 DUP2 LT ISZERO PUSH3 0x378 JUMPI DUP3 DUP2 SSTORE PUSH1 0x1 ADD PUSH3 0x363 JUMP JUMPDEST POP POP POP JUMPDEST POP POP POP JUMP JUMPDEST DUP2 MLOAD PUSH1 0x1 PUSH1 0x1 PUSH1 0x40 SHL SUB DUP2 GT ISZERO PUSH3 0x39D JUMPI PUSH3 0x39D PUSH3 0x2DC JUMP JUMPDEST PUSH3 0x3B5 DUP2 PUSH3 0x3AE DUP5 SLOAD PUSH3 0x2F2 JUMP JUMPDEST DUP5 PUSH3 0x32E JUMP JUMPDEST PUSH1 0x20 DUP1 PUSH1 0x1F DUP4 GT PUSH1 0x1 DUP2 EQ PUSH3 0x3ED JUMPI PUSH1 0x0 DUP5 ISZERO PUSH3 0x3D4 JUMPI POP DUP6 DUP4 ADD MLOAD JUMPDEST PUSH1 0x0 NOT PUSH1 0x3 DUP7 SWAP1 SHL SHR NOT AND PUSH1 0x1 DUP6 SWAP1 SHL OR DUP6 SSTORE PUSH3 0x378 JUMP JUMPDEST PUSH1 0x0 DUP6 DUP2 MSTORE PUSH1 0x20 DUP2 KECCAK256 PUSH1 0x1F NOT DUP7 AND SWAP2 JUMPDEST DUP3 DUP2 LT ISZERO PUSH3 0x41E JUMPI DUP9 DUP7 ADD MLOAD DUP3 SSTORE SWAP5 DUP5 ADD SWAP5 PUSH1 0x1 SWAP1 SWAP2 ADD SWAP1 DUP5 ADD PUSH3 0x3FD JUMP JUMPDEST POP DUP6 DUP3 LT ISZERO PUSH3 0x43D JUMPI DUP8 DUP6 ADD MLOAD PUSH1 0x0 NOT PUSH1 0x3 DUP9 SWAP1 SHL PUSH1 0xF8 AND SHR NOT AND DUP2 SSTORE JUMPDEST POP POP POP POP POP PUSH1 0x1 SWAP1 DUP2 SHL ADD SWAP1 SSTORE POP JUMP JUMPDEST PUSH4 0x4E487B71 PUSH1 0xE0 SHL PUSH1 0x0 MSTORE PUSH1 0x11 PUSH1 0x4 MSTORE PUSH1 0x24 PUSH1 0x0 REVERT JUMPDEST PUSH1 0x1 DUP2 DUP2 JUMPDEST DUP1 DUP6 GT ISZERO PUSH3 0x4A4 JUMPI DUP2 PUSH1 0x0 NOT DIV DUP3 GT ISZERO PUSH3 0x488 JUMPI PUSH3 0x488 PUSH3 0x44D JUMP JUMPDEST DUP1 DUP6 AND ISZERO PUSH3 0x496 JUMPI SWAP2 DUP2 MUL SWAP2 JUMPDEST SWAP4 DUP5 SHR SWAP4 SWAP1 DUP1 MUL SWAP1 PUSH3 0x468 JUMP JUMPDEST POP SWAP3 POP SWAP3 SWAP1 POP JUMP JUMPDEST PUSH1 0x0 DUP3 PUSH3 0x4BD JUMPI POP PUSH1 0x1 PUSH3 0x55C JUMP JUMPDEST DUP2 PUSH3 0x4CC JUMPI POP PUSH1 0x0 PUSH3 0x55C JUMP JUMPDEST DUP2 PUSH1 0x1 DUP2 EQ PUSH3 0x4E5 JUMPI PUSH1 0x2 DUP2 EQ PUSH3 0x4F0 JUMPI PUSH3 0x510 JUMP JUMPDEST PUSH1 0x1 SWAP2 POP POP PUSH3 0x55C JUMP JUMPDEST PUSH1 0xFF DUP5 GT ISZERO PUSH3 0x504 JUMPI PUSH3 0x504 PUSH3 0x44D JUMP JUMPDEST POP POP PUSH1 0x1 DUP3 SHL PUSH3 0x55C JUMP JUMPDEST POP PUSH1 0x20 DUP4 LT PUSH2 0x133 DUP4 LT AND PUSH1 0x4E DUP5 LT PUSH1 0xB DUP5 LT AND OR ISZERO PUSH3 0x535 JUMPI POP DUP2 DUP2 EXP PUSH3 0x55C JUMP JUMPDEST PUSH3 0x541 DUP4 DUP4 PUSH3 0x463 JUMP JUMPDEST DUP1 PUSH1 0x0 NOT DIV DUP3 GT ISZERO PUSH3 0x558 JUMPI PUSH3 0x558 PUSH3 0x44D JUMP JUMPDEST MUL SWAP1 POP JUMPDEST SWAP3 SWAP2 POP POP JUMP JUMPDEST PUSH1 0x0 PUSH3 0x573 PUSH1 0xFF DUP5 AND DUP4 PUSH3 0x4AC JUMP JUMPDEST SWAP4 SWAP3 POP POP POP JUMP JUMPDEST DUP1 DUP3 MUL DUP2 ISZERO DUP3 DUP3 DIV DUP5 EQ OR PUSH3 0x55C JUMPI PUSH3 0x55C PUSH3 0x44D JUMP JUMPDEST DUP1 DUP3 ADD DUP1 DUP3 GT ISZERO PUSH3 0x55C JUMPI PUSH3 0x55C PUSH3 0x44D JUMP JUMPDEST PUSH2 0x84A DUP1 PUSH3 0x5BA PUSH1 0x0 CODECOPY PUSH1 0x0 RETURN INVALID PUSH1 0x80 PUSH1 0x40 MSTORE CALLVALUE DUP1 ISZERO PUSH2 0x10 JUMPI PUSH1 0x0 DUP1 REVERT JUMPDEST POP PUSH1 0x4 CALLDATASIZE LT PUSH2 0xB4 JUMPI PUSH1 0x0 CALLDATALOAD PUSH1 0xE0 SHR DUP1 PUSH4 0x715018A6 GT PUSH2 0x71 JUMPI DUP1 PUSH4 0x715018A6 EQ PUSH2 0x157 JUMPI DUP1 PUSH4 0x8DA5CB5B EQ PUSH2 0x161 JUMPI DUP1 PUSH4 0x95D89B41 EQ PUSH2 0x17C JUMPI DUP1 PUSH4 0xA9059CBB EQ PUSH2 0x184 JUMPI DUP1 PUSH4 0xDD62ED3E EQ PUSH2 0x197 JUMPI DUP1 PUSH4 0xF2FDE38B EQ PUSH2 0x1D0 JUMPI PUSH1 0x0 DUP1 REVERT JUMPDEST DUP1 PUSH4 0x6FDDE03 EQ PUSH2 0xB9 JUMPI DUP1 PUSH4 0x95EA7B3 EQ PUSH2 0xD7 JUMPI DUP1 PUSH4 0x18160DDD EQ PUSH2 0xFA JUMPI DUP1 PUSH4 0x23B872DD EQ PUSH2 0x10C JUMPI DUP1 PUSH4 0x313CE567 EQ PUSH2 0x11F JUMPI DUP1 PUSH4 0x70A08231 EQ PUSH2 0x12E JUMPI JUMPDEST PUSH1 0x0 DUP1 REVERT JUMPDEST PUSH2 0xC1 PUSH2 0x1E3 JUMP JUMPDEST PUSH1 0x40 MLOAD PUSH2 0xCE SWAP2 SWAP1 PUSH2 0x694 JUMP JUMPDEST PUSH1 0x40 MLOAD DUP1 SWAP2 SUB SWAP1 RETURN JUMPDEST PUSH2 0xEA PUSH2 0xE5 CALLDATASIZE PUSH1 0x4 PUSH2 0x6FE JUMP JUMPDEST PUSH2 0x275 JUMP JUMPDEST PUSH1 0x40 MLOAD SWAP1 ISZERO ISZERO DUP2 MSTORE PUSH1 0x20 ADD PUSH2 0xCE JUMP JUMPDEST PUSH1 0x2 SLOAD JUMPDEST PUSH1 0x40 MLOAD SWAP1 DUP2 MSTORE PUSH1 0x20 ADD PUSH2 0xCE JUMP JUMPDEST PUSH2 0xEA PUSH2 0x11A CALLDATASIZE PUSH1 0x4 PUSH2 0x728 JUMP JUMPDEST PUSH2 0x28F JUMP JUMPDEST PUSH1 0x40 MLOAD PUSH1 0x12 DUP2 MSTORE PUSH1 0x20 ADD PUSH2 0xCE JUMP JUMPDEST PUSH2 0xFE PUSH2 0x13C CALLDATASIZE PUSH1 0x4 PUSH2 0x764 JUMP JUMPDEST PUSH1 0x1 PUSH1 0x1 PUSH1 0xA0 SHL SUB AND PUSH1 0x0 SWAP1 DUP2 MSTORE PUSH1 0x20 DUP2 SWAP1 MSTORE PUSH1 0x40 SWAP1 KECCAK256 SLOAD SWAP1 JUMP JUMPDEST PUSH2 0x15F PUSH2 0x2B3 JUMP JUMPDEST STOP JUMPDEST PUSH1 0x5 SLOAD PUSH1 0x40 MLOAD PUSH1 0x1 PUSH1 0x1 PUSH1 0xA0 SHL SUB SWAP1 SWAP2 AND DUP2 MSTORE PUSH1 0x20 ADD PUSH2 0xCE JUMP JUMPDEST PUSH2 0xC1 PUSH2 0x2C7 JUMP JUMPDEST PUSH2 0xEA PUSH2 0x192 CALLDATASIZE PUSH1 0x4 PUSH2 0x6FE JUMP JUMPDEST PUSH2 0x2D6 JUMP JUMPDEST PUSH2 0xFE PUSH2 0x1A5 CALLDATASIZE PUSH1 0x4 PUSH2 0x786 JUMP JUMPDEST PUSH1 0x1 PUSH1 0x1 PUSH1 0xA0 SHL SUB SWAP2 DUP3 AND PUSH1 0x0 SWAP1 DUP2 MSTORE PUSH1 0x1 PUSH1 0x20 SWAP1 DUP2 MSTORE PUSH1 0x40 DUP1 DUP4 KECCAK256 SWAP4 SWAP1 SWAP5 AND DUP3 MSTORE SWAP2 SWAP1 SWAP2 MSTORE KECCAK256 SLOAD SWAP1 JUMP JUMPDEST PUSH2 0x15F PUSH2 0x1DE CALLDATASIZE PUSH1 0x4 PUSH2 0x764 JUMP JUMPDEST PUSH2 0x2E4 JUMP JUMPDEST PUSH1 0x60 PUSH1 0x3 DUP1 SLOAD PUSH2 0x1F2 SWAP1 PUSH2 0x7B9 JUMP JUMPDEST DUP1 PUSH1 0x1F ADD PUSH1 0x20 DUP1 SWAP2 DIV MUL PUSH1 0x20 ADD PUSH1 0x40 MLOAD SWAP1 DUP2 ADD PUSH1 0x40 MSTORE DUP1 SWAP3 SWAP2 SWAP1 DUP2 DUP2 MSTORE PUSH1 0x20 ADD DUP3 DUP1 SLOAD PUSH2 0x21E SWAP1 PUSH2 0x7B9 JUMP JUMPDEST DUP1 ISZERO PUSH2 0x26B JUMPI DUP1 PUSH1 0x1F LT PUSH2 0x240 JUMPI PUSH2 0x100 DUP1 DUP4 SLOAD DIV MUL DUP4 MSTORE SWAP2 PUSH1 0x20 ADD SWAP2 PUSH2 0x26B JUMP JUMPDEST DUP3 ADD SWAP2 SWAP1 PUSH1 0x0 MSTORE PUSH1 0x20 PUSH1 0x0 KECCAK256 SWAP1 JUMPDEST DUP2 SLOAD DUP2 MSTORE SWAP1 PUSH1 0x1 ADD SWAP1 PUSH1 0x20 ADD DUP1 DUP4 GT PUSH2 0x24E JUMPI DUP3 SWAP1 SUB PUSH1 0x1F AND DUP3 ADD SWAP2 JUMPDEST POP POP POP POP POP SWAP1 POP SWAP1 JUMP JUMPDEST PUSH1 0x0 CALLER PUSH2 0x283 DUP2 DUP6 DUP6 PUSH2 0x327 JUMP JUMPDEST PUSH1 0x1 SWAP2 POP POP JUMPDEST SWAP3 SWAP2 POP POP JUMP JUMPDEST PUSH1 0x0 CALLER PUSH2 0x29D DUP6 DUP3 DUP6 PUSH2 0x339 JUMP JUMPDEST PUSH2 0x2A8 DUP6 DUP6 DUP6 PUSH2 0x3B7 JUMP JUMPDEST POP PUSH1 0x1 SWAP5 SWAP4 POP POP POP POP JUMP JUMPDEST PUSH2 0x2BB PUSH2 0x416 JUMP JUMPDEST PUSH2 0x2C5 PUSH1 0x0 PUSH2 0x443 JUMP JUMPDEST JUMP JUMPDEST PUSH1 0x60 PUSH1 0x4 DUP1 SLOAD PUSH2 0x1F2 SWAP1 PUSH2 0x7B9 JUMP JUMPDEST PUSH1 0x0 CALLER PUSH2 0x283 DUP2 DUP6 DUP6 PUSH2 0x3B7 JUMP JUMPDEST PUSH2 0x2EC PUSH2 0x416 JUMP JUMPDEST PUSH1 0x1 PUSH1 0x1 PUSH1 0xA0 SHL SUB DUP2 AND PUSH2 0x31B JUMPI PUSH1 0x40 MLOAD PUSH4 0x1E4FBDF7 PUSH1 0xE0 SHL DUP2 MSTORE PUSH1 0x0 PUSH1 0x4 DUP3 ADD MSTORE PUSH1 0x24 ADD JUMPDEST PUSH1 0x40 MLOAD DUP1 SWAP2 SUB SWAP1 REVERT JUMPDEST PUSH2 0x324 DUP2 PUSH2 0x443 JUMP JUMPDEST POP JUMP JUMPDEST PUSH2 0x334 DUP4 DUP4 DUP4 PUSH1 0x1 PUSH2 0x495 JUMP JUMPDEST POP POP POP JUMP JUMPDEST PUSH1 0x1 PUSH1 0x1 PUSH1 0xA0 SHL SUB DUP4 DUP2 AND PUSH1 0x0 SWAP1 DUP2 MSTORE PUSH1 0x1 PUSH1 0x20 SWAP1 DUP2 MSTORE PUSH1 0x40 DUP1 DUP4 KECCAK256 SWAP4 DUP7 AND DUP4 MSTORE SWAP3 SWAP1 MSTORE KECCAK256 SLOAD PUSH1 0x0 NOT DUP2 EQ PUSH2 0x3B1 JUMPI DUP2 DUP2 LT ISZERO PUSH2 0x3A2 JUMPI PUSH1 0x40 MLOAD PUSH4 0x7DC7A0D9 PUSH1 0xE1 SHL DUP2 MSTORE PUSH1 0x1 PUSH1 0x1 PUSH1 0xA0 SHL SUB DUP5 AND PUSH1 0x4 DUP3 ADD MSTORE PUSH1 0x24 DUP2 ADD DUP3 SWAP1 MSTORE PUSH1 0x44 DUP2 ADD DUP4 SWAP1 MSTORE PUSH1 0x64 ADD PUSH2 0x312 JUMP JUMPDEST PUSH2 0x3B1 DUP5 DUP5 DUP5 DUP5 SUB PUSH1 0x0 PUSH2 0x495 JUMP JUMPDEST POP POP POP POP JUMP JUMPDEST PUSH1 0x1 PUSH1 0x1 PUSH1 0xA0 SHL SUB DUP4 AND PUSH2 0x3E1 JUMPI PUSH1 0x40 MLOAD PUSH4 0x4B637E8F PUSH1 0xE1 SHL DUP2 MSTORE PUSH1 0x0 PUSH1 0x4 DUP3 ADD MSTORE PUSH1 0x24 ADD PUSH2 0x312 JUMP JUMPDEST PUSH1 0x1 PUSH1 0x1 PUSH1 0xA0 SHL SUB DUP3 AND PUSH2 0x40B JUMPI PUSH1 0x40 MLOAD PUSH4 0xEC442F05 PUSH1 0xE0 SHL DUP2 MSTORE PUSH1 0x0 PUSH1 0x4 DUP3 ADD MSTORE PUSH1 0x24 ADD PUSH2 0x312 JUMP JUMPDEST PUSH2 0x334 DUP4 DUP4 DUP4 PUSH2 0x56A JUMP JUMPDEST PUSH1 0x5 SLOAD PUSH1 0x1 PUSH1 0x1 PUSH1 0xA0 SHL SUB AND CALLER EQ PUSH2 0x2C5 JUMPI PUSH1 0x40 MLOAD PUSH4 0x118CDAA7 PUSH1 0xE0 SHL DUP2 MSTORE CALLER PUSH1 0x4 DUP3 ADD MSTORE PUSH1 0x24 ADD PUSH2 0x312 JUMP JUMPDEST PUSH1 0x5 DUP1 SLOAD PUSH1 0x1 PUSH1 0x1 PUSH1 0xA0 SHL SUB DUP4 DUP2 AND PUSH1 0x1 PUSH1 0x1 PUSH1 0xA0 SHL SUB NOT DUP4 AND DUP2 OR SWAP1 SWAP4 SSTORE PUSH1 0x40 MLOAD SWAP2 AND SWAP2 SWAP1 DUP3 SWAP1 PUSH32 0x8BE0079C531659141344CD1FD0A4F28419497F9722A3DAAFE3B4186F6B6457E0 SWAP1 PUSH1 0x0 SWAP1 LOG3 POP POP JUMP JUMPDEST PUSH1 0x1 PUSH1 0x1 PUSH1 0xA0 SHL SUB DUP5 AND PUSH2 0x4BF JUMPI PUSH1 0x40 MLOAD PUSH4 0xE602DF05 PUSH1 0xE0 SHL DUP2 MSTORE PUSH1 0x0 PUSH1 0x4 DUP3 ADD MSTORE PUSH1 0x24 ADD PUSH2 0x312 JUMP JUMPDEST PUSH1 0x1 PUSH1 0x1 PUSH1 0xA0 SHL SUB DUP4 AND PUSH2 0x4E9 JUMPI PUSH1 0x40 MLOAD PUSH4 0x4A1406B1 PUSH1 0xE1 SHL DUP2 MSTORE PUSH1 0x0 PUSH1 0x4 DUP3 ADD MSTORE PUSH1 0x24 ADD PUSH2 0x312 JUMP JUMPDEST PUSH1 0x1 PUSH1 0x1 PUSH1 0xA0 SHL SUB DUP1 DUP6 AND PUSH1 0x0 SWAP1 DUP2 MSTORE PUSH1 0x1 PUSH1 0x20 SWAP1 DUP2 MSTORE PUSH1 0x40 DUP1 DUP4 KECCAK256 SWAP4 DUP8 AND DUP4 MSTORE SWAP3 SWAP1 MSTORE KECCAK256 DUP3 SWAP1 SSTORE DUP1 ISZERO PUSH2 0x3B1 JUMPI DUP3 PUSH1 0x1 PUSH1 0x1 PUSH1 0xA0 SHL SUB AND DUP5 PUSH1 0x1 PUSH1 0x1 PUSH1 0xA0 SHL SUB AND PUSH32 0x8C5BE1E5EBEC7D5BD14F71427D1E84F3DD0314C0F7B2291E5B200AC8C7C3B925 DUP5 PUSH1 0x40 MLOAD PUSH2 0x55C SWAP2 DUP2 MSTORE PUSH1 0x20 ADD SWAP1 JUMP JUMPDEST PUSH1 0x40 MLOAD DUP1 SWAP2 SUB SWAP1 LOG3 POP POP POP POP JUMP JUMPDEST PUSH1 0x1 PUSH1 0x1 PUSH1 0xA0 SHL SUB DUP4 AND PUSH2 0x595 JUMPI DUP1 PUSH1 0x2 PUSH1 0x0 DUP3 DUP3 SLOAD PUSH2 0x58A SWAP2 SWAP1 PUSH2 0x7F3 JUMP JUMPDEST SWAP1 SWAP2 SSTORE POP PUSH2 0x607 SWAP1 POP JUMP JUMPDEST PUSH1 0x1 PUSH1 0x1 PUSH1 0xA0 SHL SUB DUP4 AND PUSH1 0x0 SWAP1 DUP2 MSTORE PUSH1 0x20 DUP2 SWAP1 MSTORE PUSH1 0x40 SWAP1 KECCAK256 SLOAD DUP2 DUP2 LT ISZERO PUSH2 0x5E8 JUMPI PUSH1 0x40 MLOAD PUSH4 0x391434E3 PUSH1 0xE2 SHL DUP2 MSTORE PUSH1 0x1 PUSH1 0x1 PUSH1 0xA0 SHL SUB DUP6 AND PUSH1 0x4 DUP3 ADD MSTORE PUSH1 0x24 DUP2 ADD DUP3 SWAP1 MSTORE PUSH1 0x44 DUP2 ADD DUP4 SWAP1 MSTORE PUSH1 0x64 ADD PUSH2 0x312 JUMP JUMPDEST PUSH1 0x1 PUSH1 0x1 PUSH1 0xA0 SHL SUB DUP5 AND PUSH1 0x0 SWAP1 DUP2 MSTORE PUSH1 0x20 DUP2 SWAP1 MSTORE PUSH1 0x40 SWAP1 KECCAK256 SWAP1 DUP3 SWAP1 SUB SWAP1 SSTORE JUMPDEST PUSH1 0x1 PUSH1 0x1 PUSH1 0xA0 SHL SUB DUP3 AND PUSH2 0x623 JUMPI PUSH1 0x2 DUP1 SLOAD DUP3 SWAP1 SUB SWAP1 SSTORE PUSH2 0x642 JUMP JUMPDEST PUSH1 0x1 PUSH1 0x1 PUSH1 0xA0 SHL SUB DUP3 AND PUSH1 0x0 SWAP1 DUP2 MSTORE PUSH1 0x20 DUP2 SWAP1 MSTORE PUSH1 0x40 SWAP1 KECCAK256 DUP1 SLOAD DUP3 ADD SWAP1 SSTORE JUMPDEST DUP2 PUSH1 0x1 PUSH1 0x1 PUSH1 0xA0 SHL SUB AND DUP4 PUSH1 0x1 PUSH1 0x1 PUSH1 0xA0 SHL SUB AND PUSH32 0xDDF252AD1BE2C89B69C2B068FC378DAA952BA7F163C4A11628F55A4DF523B3EF DUP4 PUSH1 0x40 MLOAD PUSH2 0x687 SWAP2 DUP2 MSTORE PUSH1 0x20 ADD SWAP1 JUMP JUMPDEST PUSH1 0x40 MLOAD DUP1 SWAP2 SUB SWAP1 LOG3 POP POP POP JUMP JUMPDEST PUSH1 0x0 PUSH1 0x20 DUP1 DUP4 MSTORE DUP4 MLOAD DUP1 DUP3 DUP6 ADD MSTORE PUSH1 0x0 JUMPDEST DUP2 DUP2 LT ISZERO PUSH2 0x6C1 JUMPI DUP6 DUP2 ADD DUP4 ADD MLOAD DUP6 DUP3 ADD PUSH1 0x40 ADD MSTORE DUP3 ADD PUSH2 0x6A5 JUMP JUMPDEST POP PUSH1 0x0 PUSH1 0x40 DUP3 DUP7 ADD ADD MSTORE PUSH1 0x40 PUSH1 0x1F NOT PUSH1 0x1F DUP4 ADD AND DUP6 ADD ADD SWAP3 POP POP POP SWAP3 SWAP2 POP POP JUMP JUMPDEST DUP1 CALLDATALOAD PUSH1 0x1 PUSH1 0x1 PUSH1 0xA0 SHL SUB DUP2 AND DUP2 EQ PUSH2 0x6F9 JUMPI PUSH1 0x0 DUP1 REVERT JUMPDEST SWAP2 SWAP1 POP JUMP JUMPDEST PUSH1 0x0 DUP1 PUSH1 0x40 DUP4 DUP6 SUB SLT ISZERO PUSH2 0x711 JUMPI PUSH1 0x0 DUP1 REVERT JUMPDEST PUSH2 0x71A DUP4 PUSH2 0x6E2 JUMP JUMPDEST SWAP5 PUSH1 0x20 SWAP4 SWAP1 SWAP4 ADD CALLDATALOAD SWAP4 POP POP POP JUMP JUMPDEST PUSH1 0x0 DUP1 PUSH1 0x0 PUSH1 0x60 DUP5 DUP7 SUB SLT ISZERO PUSH2 0x73D JUMPI PUSH1 0x0 DUP1 REVERT JUMPDEST PUSH2 0x746 DUP5 PUSH2 0x6E2 JUMP JUMPDEST SWAP3 POP PUSH2 0x754 PUSH1 0x20 DUP6 ADD PUSH2 0x6E2 JUMP JUMPDEST SWAP2 POP PUSH1 0x40 DUP5 ADD CALLDATALOAD SWAP1 POP SWAP3 POP SWAP3 POP SWAP3 JUMP JUMPDEST PUSH1 0x0 PUSH1 0x20 DUP3 DUP5 SUB SLT ISZERO PUSH2 0x776 JUMPI PUSH1 0x0 DUP1 REVERT JUMPDEST PUSH2 0x77F DUP3 PUSH2 0x6E2 JUMP JUMPDEST SWAP4 SWAP3 POP POP POP JUMP JUMPDEST PUSH1 0x0 DUP1 PUSH1 0x40 DUP4 DUP6 SUB SLT ISZERO PUSH2 0x799 JUMPI PUSH1 0x0 DUP1 REVERT JUMPDEST PUSH2 0x7A2 DUP4 PUSH2 0x6E2 JUMP JUMPDEST SWAP2 POP PUSH2 0x7B0 PUSH1 0x20 DUP5 ADD PUSH2 0x6E2 JUMP JUMPDEST SWAP1 POP SWAP3 POP SWAP3 SWAP1 POP JUMP JUMPDEST PUSH1 0x1 DUP2 DUP2 SHR SWAP1 DUP3 AND DUP1 PUSH2 0x7CD JUMPI PUSH1 0x7F DUP3 AND SWAP2 POP JUMPDEST PUSH1 0x20 DUP3 LT DUP2 SUB PUSH2 0x7ED JUMPI PUSH4 0x4E487B71 PUSH1 0xE0 SHL PUSH1 0x0 MSTORE PUSH1 0x22 PUSH1 0x4 MSTORE PUSH1 0x24 PUSH1 0x0 REVERT JUMPDEST POP SWAP2 SWAP1 POP JUMP JUMPDEST DUP1 DUP3 ADD DUP1 DUP3 GT ISZERO PUSH2 0x289 JUMPI PUSH4 0x4E487B71 PUSH1 0xE0 SHL PUSH1 0x0 MSTORE PUSH1 0x11 PUSH1 0x4 MSTORE PUSH1 0x24 PUSH1 0x0 REVERT INVALID LOG2 PUSH5 0x6970667358 0x22 SLT KECCAK256 SIGNEXTEND SSTORE SWAP5 DUP4 RETURN SDIV DELEGATECALL PUSH29 0xB576E3519AD46B62E526BA58E6B5575E157C3E67EE07D08A64736F6C63 NUMBER STOP ADDMOD EQ STOP CALLER "
				},
				"gasEstimates": {
					"creation": {
						"codeDepositCost": "424400",
						"executionCost": "infinite",
						"totalCost": "infinite"
					},
					"external": {
						"allowance(address,address)": "infinite",
						"approve(address,uint256)": "24739",
						"balanceOf(address)": "2651",
						"decimals()": "266",
						"name()": "infinite",
						"owner()": "2323",
						"renounceOwnership()": "infinite",
						"symbol()": "infinite",
						"totalSupply()": "2326",
						"transfer(address,uint256)": "51288",
						"transferFrom(address,address,uint256)": "infinite",
						"transferOwnership(address)": "28446"
					}
				},
				"methodIdentifiers": {
					"allowance(address,address)": "dd62ed3e",
					"approve(address,uint256)": "095ea7b3",
					"balanceOf(address)": "70a08231",
					"decimals()": "313ce567",
					"name()": "06fdde03",
					"owner()": "8da5cb5b",
					"renounceOwnership()": "715018a6",
					"symbol()": "95d89b41",
					"totalSupply()": "18160ddd",
					"transfer(address,uint256)": "a9059cbb",
					"transferFrom(address,address,uint256)": "23b872dd",
					"transferOwnership(address)": "f2fde38b"
				}
			},
			"storageLayout": {
				"storage": [
					{
						"astId": 240,
						"contract": "SpanishSun_flattened.sol:SpanishSun",
						"label": "_balances",
						"offset": 0,
						"slot": "0",
						"type": "t_mapping(t_address,t_uint256)"
					},
					{
						"astId": 246,
						"contract": "SpanishSun_flattened.sol:SpanishSun",
						"label": "_allowances",
						"offset": 0,
						"slot": "1",
						"type": "t_mapping(t_address,t_mapping(t_address,t_uint256))"
					},
					{
						"astId": 248,
						"contract": "SpanishSun_flattened.sol:SpanishSun",
						"label": "_totalSupply",
						"offset": 0,
						"slot": "2",
						"type": "t_uint256"
					},
					{
						"astId": 250,
						"contract": "SpanishSun_flattened.sol:SpanishSun",
						"label": "_name",
						"offset": 0,
						"slot": "3",
						"type": "t_string_storage"
					},
					{
						"astId": 252,
						"contract": "SpanishSun_flattened.sol:SpanishSun",
						"label": "_symbol",
						"offset": 0,
						"slot": "4",
						"type": "t_string_storage"
					},
					{
						"astId": 720,
						"contract": "SpanishSun_flattened.sol:SpanishSun",
						"label": "_owner",
						"offset": 0,
						"slot": "5",
						"type": "t_address"
					}
				],
				"types": {
					"t_address": {
						"encoding": "inplace",
						"label": "address",
						"numberOfBytes": "20"
					},
					"t_mapping(t_address,t_mapping(t_address,t_uint256))": {
						"encoding": "mapping",
						"key": "t_address",
						"label": "mapping(address => mapping(address => uint256))",
						"numberOfBytes": "32",
						"value": "t_mapping(t_address,t_uint256)"
					},
					"t_mapping(t_address,t_uint256)": {
						"encoding": "mapping",
						"key": "t_address",
						"label": "mapping(address => uint256)",
						"numberOfBytes": "32",
						"value": "t_uint256"
					},
					"t_string_storage": {
						"encoding": "bytes",
						"label": "string",
						"numberOfBytes": "32"
					},
					"t_uint256": {
						"encoding": "inplace",
						"label": "uint256",
						"numberOfBytes": "32"
					}
				}
			},
			"userdoc": {
				"kind": "user",
				"methods": {},
				"version": 1
			}
		}
	}
}